:020000041000EA
:1000000000B5324B212058609868022188439860DF
:10001000D860186158612E4B002199600221596106
:100020000121F02299502B49196001219960352056
:1000300000F044F80222904214D00621196600F024
:1000400034F8196E01211966002018661A6600F04E
:100050002CF8196E196E196E052000F02FF8012189
:100060000842F9D1002199601B49196000215960AB
:100070001A491B48016001219960EB211966A021F2
:10008000196600F012F800219960164914480160C1
:100090000121996001BC002800D000471248134993
:1000A000086003C880F30888084703B5996A0420EC
:1000B0000142FBD001200142F8D103BD02B5186610
:1000C0001866FFF7F2FF186E186E02BD00000240BE
:1000D000000000180000070000035F00212200005C
:1000E000F4000018222000A00001001008ED00E03C
:1000F00000000000000000000000000074B24E7A12
:1001000000200420F7010010C3010010C5010010F9
:10011000C1010010C1010010C1010010C101001097
:10012000C1010010C1010010C1010010C701001081
:10013000C1010010C1010010C9010010CB01001065
:10014000CD010010CD010010CD010010CD01001037
:10015000CD010010CD010010CD010010CD01001027
:10016000CD010010CD010010CD010010CD01001017
:10017000CD010010CD010010CD010010CD01001007
:10018000CD010010CD010010CD010010CD010010F7
:10019000CD010010CD010010CD010010CD010010E7
:1001A000CD010010CD010010CD010010CD010010D7
:1001B000CD010010CD010010CD010010CD010010C7
:1001C00000BE00BE00BE00BE00BE00BE00F04BF888
:1001D000103800BEF2EB8871148D0E10388D0E10A1
:1001E0003402001090A31AE700202149086006C8D5
:1001F00081F3088810471F48006800282FD10DA4FC
:100200000ECC002902D000F012F8F9E71A491B4A77
:10021000002000E001C19142FCD1194988471949E9
:1002200088471949884700BEFDE701C901C29A42C3
:10023000FBD37047388D0E10C0000020B40B002097
:100240002C980E1000000420000004202C980E10A2
:1002500000100420001004200000000070470B482C
:1002600001F022FF0047EFF30580C0B270470000A5
:1002700008ED00E0000000D0B40B0020901000203A
:1002800051170010F10300107118001057560000AC
:1002900006005250ABB36053848C0E1006005250CF
:1002A000861C0302948C0E10060052505422A29D0C
:1002B000A08C0E1005005250DE65F4682C980E10CC
:1002C000F8B5C0460448054B10B5834203D0044B33
:1002D000002B00D0984710BDB40B0020B40B0020B9
:1002E0000000000006480749091A8B10C90FC918F9
:1002F00010B5491003D0044B002B00D0984710BD17
:10030000B40B0020B40B00200000000010B5074C17
:100310002378002B09D1FFF7D5FF054B002B02D026
:10032000044800E000BF0123237010BDB40B00207F
:1003300000000000A8340010054B10B5002B03D0BE
:100340000449054800E000BFFFF7CCFF10BDC046E0
:1003500000000000B80B0020A8340010A4234021A6
:100360001B4A30B5D1501B4B1B491B680A68DB0088
:10037000013B93420CD9194B1B78002B0DD0184B25
:1003800018481B681B041B0C036001320A6003E061
:100390000023154A0B60137030BD144BD0101C683D
:1003A0000F4B1D68235C6B401B040E4D1B0C2B6018
:1003B000235C802B05D9D02380201B06C000586108
:1003C000E3E7D02380201B06C0009861DDE7C0462C
:1003D00000000540800D0020700D0020790D0020E8
:1003E00084000540841005407A0D00207C0D00201B
:1003F000F0B5CE46474680B5904B914C914D236069
:100400009846914B85B02B6002F0FCFA8F4803AB05
:1004100002AA01A900F0ACF9002803D18B498C484D
:1004200001F028FA039A0299019800F063F9042177
:100430001C2000F053FA4023A422864F0420BB5016
:10044000854A8649136001F081FC0121042001F0F6
:1004500063FC00268023FA22BE67FE500433FE5060
:100460000433FA50683BFB671F3BBB671920994672
:10047000D02700F077FA80233F069B047B620A2096
:100480007B6100F06FFA8023DB007B620E20BB6192
:1004900000F068FA8023E121DB017B624902BB6145
:1004A0006F4800F0CFFA0221300000F017FA022165
:1004B000484600F013FA02F003FB0F211A2000F067
:1004C0000DFA320031001A2000F020FA31001A2013
:1004D00000F034FAE021634BC9011A680A4062490E
:1004E0000A600421614A1160802252001968114299
:1004F000FCD0586880B202F0F3F85D4902F0BCF815
:100500005C4902F0E7F8431E98415B4B5B4E187064
:100510005B4B1B681B780B2B2FD900233370434692
:100520002360494B2B600123564C574A2370574B8D
:100530001B689BB213600120002100F057FD237857
:10054000002BF8D10021042001F0E6FB33780022D3
:100550000A2B01D80133DAB24D4D4E4B32702A705E
:100560001A78002A1AD0D02380221B06D2015A61A1
:100570000120002100F03AFDFAE73370002BCED0C5
:10058000012B04D1444B2360444B2B60CBE7022B5F
:1005900013D1434B2360434B2B60C4E78021424C73
:1005A0000132206849011A7002F06EFF8022290092
:1005B0002068520002F050FFD5E7032B04D13B4BDB
:1005C00023603B4B2B60AEE7042B04D1394B2360F7
:1005D000394B2B60A7E7052B04D1384B2360384BF0
:1005E0002B60A0E7062B04D1364B2360364B2B60E3
:1005F00099E7072B04D1354B2360354B2B6092E7ED
:10060000082B04D1334B2360334B2B608BE7092B32
:1006100004D1324B2360324B2B6084E70A2B04D188
:10062000304B2360304B2B607DE70B2B00D07AE7FB
:100630002E4B23602E4B2B6075E7C046F83F04100D
:100640007C0D0020800D0020F6EB000080AF020042
:10065000A834001000000540A82005405D030010EC
:100660000040034000C0044000D0044000E00440CB
:100670003333533A4FCCFA3C790D0020770D0020EC
:10068000C00200207A0D002084100540840005403F
:10069000840D0020760D0020DC3400101F5F010067
:1006A000F02B0510C8340100C4020020BC60061005
:1006B000781101003872071036110100708308109C
:1006C00069F60000DC790910FF060100DC800A10E1
:1006D00096C1010074420C1030EB0000A82D0D10E3
:1006E0008B5E0100FC9301108E5001008CE402101F
:1006F0006A5B0100F0B583B006000C00150000F045
:1007000099F9002801D003B0F0BD164F01223B003B
:1007100001210097053001F0CBF8EBB232000093D5
:1007200001212300104801F0CDFA21003000694377
:1007300001F0E8FC04000D4B00220093022104208C
:1007400001F0B6F82300002201210094052001F0F9
:10075000AFF83B00022200210097062001F0A8F824
:10076000D1E7C046006CDC0200800240001BB700ED
:10077000F0B5DE4657464E464546E0B5070083B025
:1007800004209B460091019201F07AFAFA21890037
:1007900001F0B8FC32238246FF3399468600564466
:1007A000B6014C4B4C4AF318072493420BD9012352
:1007B0005B429C465346E144F61A4B46002BF0D16F
:1007C00000205AE0012421003000614301F09AFC2E
:1007D000874259D0631E9846012CE8D01D0065431E
:1007E0003000290001F08EFC874251D0A31E9846AC
:1007F000022CE7D02D1B2900300001F083FC87423A
:1008000049D0E31E9846032C4BD02D1B2900300005
:1008100001F078FC874246D0231F9846042C48D02C
:100820002D1B2900300001F06DFC874243D0631F6F
:100830009846052C45D02D1B2900300001F062FCA4
:10084000874240D0062C42D03000E91F01F05AFC0C
:1008500006248742B7D10029B5D101230724984641
:1008600073019B1B9B009E19009BF6001E60019B61
:1008700042461C605B4601201A6003B03CBC9046B7
:100880009946A246AB46F0BD0029A3D1A046E7E7B2
:100890000029ABD1E4E70029E2D0E31E9846032CFF
:1008A000B3D102248FE70029DAD0231F9846042C05
:1008B000B6D1032487E70029D2D0631F9846052CC0
:1008C000B9D104247FE70029CAD0062CBCD1052465
:1008D00079E7C04680E5F9FF804F1200094A83009E
:1008E00094464022634410B51C68C0006240C02496
:1008F00014408022520113431C60034B9C46604409
:10090000416010BD04C00140004001400A4B80001E
:100910009C4604236044002901D008210C23002AAE
:1009200000D10B00026853400C221A4080235B0167
:10093000184302607047C04604C00140084B800065
:100940009C466044002905D080239B011843402326
:1009500003607047C0239B01184340230360F8E7FE
:1009600004C001400123D0228340120693629361A8
:10097000094A83009446402263441968C0004A40F3
:10098000C02111408022520113431960034B9C4641
:10099000052360444360704704C0014000400140AB
:1009A000F8B5CE464746914680B5EFF3108772B64C
:1009B000124E3368002BFCD0BFF35F8FCB08C55CB1
:1009C0000724C218280001230C409446E0401A0076
:1009D0000240904603420DD1A34062462B43137060
:1009E000BFF35F8F4346336087F310880CBC90469B
:1009F0009946F8BD484600F03DFFC0462C0100D0A6
:100A00000021044B044ABFF35F8F02C39342FAD123
:100A10007047C046000100D0800100D0044A107821
:100A2000431CDBB2172B00D9102313707047C0464C
:100A3000C8020020024B18688007C00F7047C046EC
:100A400000C00640F8B5040006200D0001F018F9BA
:100A5000002845D02B4B2C49E3185A4253418022A1
:100A6000D20394465B421340284A63441360284AE9
:100A7000136018008A689043FBD1224B8021E31851
:100A80005A425341234A5B0049000620995201F023
:100A9000F7F82900C00001F035FBC30921D1402738
:100AA0000122260080256262A36200232C36AD015C
:100AB00035432B60062001F0E3F83900800001F097
:100AC00021FB6023E26A53406E221A4080235B01BF
:100AD00033431A60104B236310232B600D3BA36438
:100AE000F8BD0E4A934203D900230D4F0D4AD8E7B3
:100AF0007F221040013040089F011A003F18030078
:100B0000CFE7C0460080FCBF00C0004000E00040CE
:100B100000F00040840E002001030000FEFF0000F2
:100B2000C0FF3F00FFFF000083680B4810B58446FC
:100B300061446244090112019A18591854684B68BB
:100B400001209C4201D802D00020C0B210BD126822
:100B50000B689A42F9D8F7E7FFFFFF0F40BF00206C
:100B600000217047F8B5DE4657464E464546E0B58B
:100B70001F000DAB1B7805009B460C9B1600002B3D
:100B800045D0414A0C9B9446DBB2AA689A460C9B1E
:100B90002C68634494461B010A9A63449A600B9A3A
:100BA0001E60DA600C9A5F6094460C9B00225B002A
:100BB0006344033B9846236843449A705A701A7002
:100BC000637B9946002B43D052461900A0686368A6
:100BD0009847226800282BD04B465B004B44033BD0
:100BE000D1188C464146484651188870D35C002B7A
:100BF00046D15346624613704B460C986373814549
:100C000028D03CBC90469946A246AB46F8BD026847
:100C1000947B002C32D0116863008C461B1963440E
:100C2000033B5B789373002B00D1D3730C94A8E73C
:100C30004346D1184B4650465B004B44033BD31808
:100C400098704046125C002A00D05A704B460B70D8
:100C50005346637332003B00287D00F0DBFA061E2A
:100C600006D05B46002B03D15146286800F032FDC8
:100C70000E9B002B06D00C981E70C2E70020C0E728
:100C80004B70B6E70C98BCE7FFFFFF0FF0B5DE46F0
:100C90004E46574645460023E0B58DB00A936B4B50
:100CA0008200D3580B90994600239B464B460793EE
:100CB00000F050FA079C06000F006268EFF3108501
:100CC00072B61368002BFCD022000794BFF35F8F2D
:100CD0002468637B9946002B67D092685C4B9046F2
:100CE0004B441B01984443461A685B681000190086
:100CF000801BB94100295FDD0B9800F08BFA0023BF
:100D00000026984600279A46079C6368BFF35F8FCA
:100D10005A461A6085F310885346002B08D10028E4
:100D2000C6D10DB03CBC90469946A246AB46F0BD3C
:100D30000A9B414618024B461843D0470890099138
:100D40006268EFF3108572B61368002BFCD007942D
:100D5000BFF35F8F0899099A002A48DB114303D03B
:100D6000079B1B69002B5DD1079B1B68DA7B002A60
:100D700007D051008A1819688C4649466244033AE4
:100D800051704A46DA734B46079A013BD168CA5CF8
:100D90000132CA545B46079A13615368BFF35F8FF1
:100DA0005A461A6085F3108882E700230026984689
:100DB00000279A460020A7E7002901D100289BD1EF
:100DC0000121200000F0E8FB43461E685F689B6835
:100DD000079A9A464346DB689846D3684B44013BE2
:100DE0001B780A931B020343136100208CE72369DD
:100DF000002BB9D033003C005B1A94411A00230049
:100E0000A74219D89F421BD0594604910121039152
:100E10004946029141460191514607980091FFF7DA
:100E2000A1FEB7E700F096F9089A099B06000F00AB
:100E300092197B419942E5D901225242D317E3E747
:100E40009642E1D901225242D317DDE7500D00202E
:100E5000FFFFFF0FF8B557464E46DE464546914622
:100E6000E0B504009A464268EFF3108872B6136842
:100E7000002BFCD0BFF35F8F2668B57B002D4AD0D6
:100E80006F0033687F19033FDB195B78B373002B66
:100E900000D1F373354B0022E918A36809019C4681
:100EA0004B4661440B6053464B60314BCA608B60CC
:100EB0003368DB199A705A701A70737B9B46002B4B
:100EC00044D02A001900B068736898473268002837
:100ED0002FD05B4658465B005B44D719033BB87084
:100EE000D118D35C002B3ED15B460D7073735D450A
:100EF0002DD00026E36862685B19013B1B78BFF3C5
:100F00005F8F0021116088F310880020002E0AD125
:100F10001802284307E06368BFF35F8F1D6088F302
:100F20001088012040423CBC90469946A246AB4600
:100F3000F8BD5B465B005B44033BD3189D70D11941
:100F4000D25D002A00D05A705B460B7075734A461A
:100F50005346207D00F05EF9061ECAD029002068A5
:100F600000F0B8FBC6E77B70BEE7C046FFFFFF0F8F
:100F70005D0B001070B5184C2368002B00D070BDBD
:100F8000032000F0DBF8032000F0A6F9134903204A
:100F900000F0FAF8182001F00DFC0500FFF73EFD07
:100FA0000F4B2A009C46604480000E496860102068
:100FB00000F0FCF910212860102001F0FFFB012156
:100FC000A860102001F0FAFB03232B75064BE860A4
:100FD000DD602560D3E7C0463C0D00208D0C00107D
:100FE00040000034290B0010500D0020F8B504001B
:100FF0000D0000F0AFF802000B00A4185D41A942FB
:101000002FD82CD006267642F71736196F41AF42FB
:101010002ED90026002700F09DF832003B00121A5E
:101020008B41002B07DC04D02900200000F09CF845
:10103000F8BD002AF8D0114B320018683B00FFF7CA
:1010400009FF0028F0DB38000D4A536A984204D8A3
:10105000916A8E42E8D99842E6D120BFF5E7A042D6
:10106000D0D901246442E51707267642F717D2E764
:10107000AF42D0D1A642CCD8CDE7C0463C0D00202F
:1010800000400540F0B5D6464F464646C0B5EFF3A2
:1010900005833F22134018001038EFF3108C72B60E
:1010A000204D2A68002AFCD0BFF35F8F0122110077
:1010B00081401D4C884661631C4917000E788A46A2
:1010C0003100C1400F400A4215D019498200646ABC
:1010D00051588C4219D3174BD25843469E4353461E
:1010E0001E70BFF35F8F00232B608CF31088002AE3
:1010F00006D0904704E0BFF35F8F2F608CF3108819
:101100001CBC90469946A246F0BD0B4A9B009046F7
:1011100043441A681A60BFF35F8F00232B608CF37F
:101120001088EDE7280100D0004005407B0D00202D
:10113000600D0020040C0020D03F054010B50100D8
:10114000024A0348FFF72CFC10BDC046348C0E1039
:10115000750D0020034B596A0A00986A596A8A4241
:10116000FAD1704700400540064A536A9942FCD8BC
:1011700007D1044B02E05A6A914202D19A6A824234
:10118000F9D370470040054070B504000D00EFF33F
:10119000108672B61A4A1368002BFCD0BFF35F8F1B
:1011A000002D1BD0200000F0C9FD164981420AD055
:1011B000200000F0CBFD0121200000F0ADFD012357
:1011C000A340114A1360114BA400E550BFF35F8F99
:1011D00000220B4B1A6086F3108870BD0B4BA200E7
:1011E000D5500122A2400A4920000B7893430B708E
:1011F000044900F0D5FD0021200000F08DFDE5E759
:10120000280100D08510001038600540040C002033
:101210007B0D0020F0B5CE46474680B52A4C616A6A
:101220000D00A66A616AA942FAD18B4207D804D0A0
:1012300001200CBC90469946F0BDB242F8D9EFF3BC
:10124000108872B6214C21680029FCD0BFF35F8F53
:10125000012585401C4C1E4E6563E9B28C463178F1
:10126000894661464F4639433170011D89000A5154
:10127000184980004350216A002029420CD02000E8
:10128000616A0C00876A416AA142FAD18B4202D896
:101290000AD1BA4208D90020BFF35F8F00220B4B5E
:1012A0001A6088F31088C4E7074B4F461D625D63E0
:1012B00063469F4301203770BFF35F8F0022034BCB
:1012C0001A6088F31088B4E700400540280100D078
:1012D0007B0D0020600D002010B5EFF3108472B676
:1012E0000A490B68002BFCD0BFF35F8F01238340BA
:1012F000074A0848136202789A430270BFF35F8F6F
:1013000000230B6084F3108810BDC046280100D074
:10131000004005407B0D0020024B9C466144890043
:10132000016070474000003410B50400FFF776FB01
:1013300001002000FFF7F0FFFF232371BFF35F8F51
:1013400010BDC04670B505000E001400002924D061
:10135000002A24D080686B689847296800280ED03E
:1013600063001B197200033B9219CB18033A9E705D
:1013700088188A5C002A14D1047030000EE07300D3
:101380009B196200033B1219CB18033A9C70881812
:101390008A5C002A00D05A700670200070BD0800D8
:1013A000FCE75A7004703000F8E7C046F0B5C64656
:1013B00005000F0000B510210120160001F0FEF914
:1013C000EBB204000373032147602800984601F044
:1013D000F5F9002363730133A3734346FF21E373DD
:1013E000FE232060A66029402B4206D0421CFD3B14
:1013F0000133137003328B42FAD34B005918002388
:10140000401803384370200004BC9046F0BDC0462D
:10141000F8B5CE46474606000C0080B5002907D037
:101420004D0003686D18033D5A195778002F04D1F9
:1014300020000CBC90469946F8BD7900C9190339C3
:101440008846434459788946002159705170736821
:101450003A002100806898473368002814D042463B
:101460009A18947059195B5D002B00D053700F705F
:10147000270049463000FFF7CBFF3900020030005B
:10148000FFF760FF0400D3E7424641465D19AF70A5
:101490009A185B5C002B00D06B701470E9E7C046B3
:1014A000F0B557464546DE464E46E0B50D006B00AA
:1014B00001685B19DF1E0400C85D83B00192CA1980
:1014C00000284CD043001B18033BCB185E78B44671
:1014D000002E16D1019E002E3ED1E67B002E04D0B8
:1014E00073009B19CB18033B5D70E57300282FD167
:1014F0000023537003B03CBC90469946A246AB46CD
:10150000F0BD72006244033A89184A78904600227E
:101510004A7091465A70010032002000FFF712FF16
:1015200043468246002B07D05B0021684344033BBF
:10153000CB185A78002A16D1424651462000FFF7B0
:1015400001FF2168019BCA19002BC6D00028CFD00B
:1015500043001B18033BCB1800219970C8E7019B7F
:10156000002BC5D1B9E75000801803380918487816
:10157000834648464870587041462000FFF7E2FE17
:10158000594680462000FFF743FF414602002000F5
:10159000FFF7D8FE8046CFE7F0B54E464546DE461B
:1015A0005746E0B5467B040075000068AD19033D61
:1015B00083B00191415D421900294ED04B005B1868
:1015C000033BC3185F78BC46002F18D1019D002D46
:1015D00040D1E57B002D04D06B005B19C318033BA1
:1015E0005E70E673002931D10023300053706173BF
:1015F00003B03CBC90469946A246AB46F0BD7A008B
:101600006244033A80184278934600224270914621
:101610005A7020003A00FFF795FE5B468046002B8B
:1016200007D05B0021685B44033BCB185A78002A43
:1016300017D15A4641462000FFF784FE019B010066
:1016400020684219002BC4D00029CDD04B005B1874
:10165000033BC31800209870C6E7019B002BC3D141
:10166000B7E7500080180338091848788246484682
:101670004870587059462000FFF764FE5346834671
:10168000002B07D05B0021685344033BCB185A78EA
:10169000002A06D1594652462000FFF753FE8346E2
:1016A000C7E7500080180338091848464F7848703B
:1016B000587051462000FFF745FE39008146200052
:1016C000FFF7A6FE494602002000FFF73BFE8246D8
:1016D000E0E7C04670B5040000292CD0437B8B4264
:1016E0002ED0056848004018033828188278002A50
:1016F00021D053009B18033BEA5CEE188A4202D1CA
:101700001BE0002A08D053009B18033BEB185A78C3
:101710008A42F6D142785A700023002283704370C7
:101720002000FFF7BDFE617B02002000FFF70AFEEC
:101730006073012000E0002070BD43783370EBE758
:1017400000221900FFF7ACFE60730120F4E7C046E9
:101750002B4B2C4A70B51A602B4A2C4B2C491A6023
:1017600010008B689843FBD12A4C2B4B9C4209D22A
:10177000013B1D1BAD080135AD002D1908CC984764
:10178000AC42FBD100F00CF9244A204B1A60204AED
:101790009368DB018033FBD14022214B214C9A67B7
:1017A0005A671A67DA66204B9C420BD2013B1D1B1D
:1017B000ED080135ED002D1920000834FFF7B4FDC8
:1017C000AC42F9D1194C1A4DA168C022280001F091
:1017D00007F8A560FFF714F900F022FCFFF7CAFB39
:1017E000144C154B9C4209D2013B1D1BAD08013521
:1017F000AD002D1908CC9847A542FBD170BDC0465D
:1018000000E00040BFCDFFFFFE7F3C0000F0004045
:1018100000C00040A00B0020B00B0020FFFFFF0124
:1018200000F00140980B0020A00B002000ED00E02C
:1018300000000020B00B0020B40B0020094A030078
:101840001068002805D00849C3188B4207D21360DE
:10185000704706480449C31810608B42F7D3012033
:101860004042F5E7480D00200000042090100020C1
:1018700000BEFDE70FB400B5084883B001F086F85C
:10188000049B002B07D005A91800019100F0ECFB88
:10189000034801F07BF800BEFDE7C046588C0E10EF
:1018A000688C0E1010B50148FFF7E4FF6C8C0E1029
:1018B000F0B54F464646D646C0B51700089A050013
:1018C00088469A4265D8190E1802002300F060FC81
:1018D000314B6C009C466419A400644463688146E3
:1018E000984200D960602B1FDBB29A46012B2CD99D
:1018F000C0238022294EAD009B0171592343120160
:101900001A60002905D0706900F0FCFB0130013835
:10191000FDD122687F017A40E0278023174052469C
:101920005B0123431F60012A26D9802380229B016B
:10193000234312011A604B4601206360089B7351D8
:101940001CBC90469946A246F0BD4346012BCFD120
:10195000C02303229B0123431A60023AA3681A4260
:10196000FCD0E02322687F0157401F4080235B01A9
:1019700023430A4E1F60AD004246216851400322B6
:101980000A401A60012243469A40A3681A42FCD0DA
:10199000CBE70020D4E7C04600800040140D0020B3
:1019A00030B50C2083B000F071F9FFF743F8002840
:1019B0000ED09A4B9A4A1A605A609A60DA601A619D
:1019C0005A619A61DA611A62964A5A6203B030BD6E
:1019D000954CA06700F062F90122944B1A60636C89
:1019E000012BFCD10322924B1A608F4A936B012B7F
:1019F000FCD1C0228F4B92011A608F4B8F491A6025
:101A000010008B689843031EFAD1022401218C4AEE
:101A10008C480633009400F055F905238A4A0121C9
:101A20008A48009400F04EF9894B5A68FF2A02D880
:101A3000802252005A608022784C7D4B216912012D
:101A4000834D1A60002905D0606900F05BFB01300E
:101A50000138FDD1E0217E4B02201A68114080221E
:101A600052012A4311601968484003210140116066
:101A700004219A681142FCD08022802192012A43DD
:101A800009011160802252005A60724B2361724B2F
:101A90005968FF2900D85A6003226F48634B01211F
:101AA0001A60020093681942FCD0E02513681D40BB
:101AB00080235B0103431D6012684A4003211140EB
:101AC00019600221644A93681942FCD08023802166
:101AD0009B010343090119608021604B490051605B
:101AE00063615F4B5A68FF2A00D8596080225D4BC2
:101AF000E16912015A4D1A60002905D0606900F0B1
:101B000001FB01300138FDD1E02255490B681A4034
:101B100080235B012B431A60802380229B012B438F
:101B200012011A6080223E4B52004A60E3614E4B24
:101B30005968FF2900D85A6080224C4B216A120153
:101B4000494D1A60002905D0606900F0DBFA0130C8
:101B50000138FDD1E02244490B681A4080235B0123
:101B60002B431A60802380229B012B4312011A60B1
:101B7000802380225B004B60294BD20223623C4BC6
:101B80005968914200D25A6080223A4B616A120130
:101B9000374D1A60002905D0606900F0B3FA0130B2
:101BA0000138FDD1E02232490B681A4080235B01E5
:101BB0002B431A60802380229B012B4312011A6061
:101BC0008023DB024B60174B63622B4B5A68FF2A62
:101BD00002D8802252005A608022284BA16912014B
:101BE000254D1A60002905D0606900F08BFA01309C
:101BF0000138FDD1E02220490B681A4080235B01A7
:101C00002B431A60802380229B012B4312011A6010
:101C100080235B004B60114BA361D7E6140D0020BD
:101C2000006CDC021BB70000008000403CB00040AC
:101C300030B0004000E0004000F0004000C0004034
:101C4000002F68590080024000389C1C00C00240F0
:101C500030800040001BB7003C80004040597307B3
:101C60005480004054B000406080004060B00040AC
:101C70006C8000406CB000404880004048B000409C
:101C8000014B8000C0587047140D00208023024A89
:101C90009B000343D362704700800540AA23064A95
:101CA0001B0113602F230549D360054B196053684E
:101CB000002BFCDA7047C0460040024000B0FA003A
:101CC00000600240F8B51D0006AB1E7801235B42A0
:101CD000436000230400836001600C20170000F0C3
:101CE00011FA4101091A8B01591AC9000918890111
:101CF000380000F007FAC021231D89011943212370
:101D0000A0600B602268002AFCDA08232D04360349
:101D10002E43E6600B60F8BD01238340002904D008
:101D2000034A1360034A13607047034A1360FBE7DA
:101D300080E200E000E100E080E100E0024B1030D2
:101D40009B688000C058704700ED00E070B50D0042
:101D5000EFF3108672B60F4A1368002BFCD0BFF366
:101D60005F8F0D4B10309B6884001B590B4A9342C8
:101D700003D09D4201D0FFF795FD074B9B681D5195
:101D8000BFF35F8FBFF35F8F0022024B1A6086F3B1
:101D9000108870BD240100D000ED00E0CD010010DE
:101DA000F0B5DE4657464E464546E0B50C0083B0DA
:101DB000EFF3108A72B65F4A1368002BFCD0BFF3B2
:101DC0005F8F1022914681444A465B4B96009B6888
:101DD0009D595A4B98469D4205D0A54216D0584F62
:101DE000EB1B2F2B14D9544B9B689D51BFF35F8F76
:101DF000BFF35F8F00224F4B1A608AF3108803B045
:101E00003CBC90469946A246AB46F0BD1D00EAE7B1
:101E1000012383409B465A464A4B1B681A40009256
:101E20005A46494B1A60BFF35F8FFEF71CFA0190C8
:101E3000002803D0814501D0FFF734FD012329009C
:101E400099438B68A34269D00A0007E043001B183E
:101E50009B00FB189868A04211D01A00062010566B
:101E60000028F3DA009B002B05D05A46374B1A6046
:101E7000344B1A60B7E75A46334B1A60B3E7062073
:101E80001856002822DB4200111889007C18884669
:101E9000A1689960E179D971062161569971A1799A
:101EA0007F292BD8A488F91A6405241544440919FC
:101EB000E0240905490D2402214399801218244B7E
:101EC0009200BF181A781870BA71CBE701980028F1
:101ED00017D1FF3090711F4890801D4ACF1B10789A
:101EE000BF109871BB00DB1919015B1819025B1850
:101EF00019045B185B00DB191370B3E7BD210902FD
:101F0000DBE7154A1549D21A083A5002400D014341
:101F10009980134952080A43DA80A3E7062008563D
:101F20000B000028AFDA019A002AEAD10B004546DF
:101F3000D3E7C046240100D000ED00E0CD01001041
:101F4000CC02002000E100E080E100E080E200E05F
:101F5000780D002000BDFFFF0603002000F0FFFF0A
:101F600000F8FFFFF8B5012504000543FEF77BF9F3
:101F7000EFF3108672B6244A1368002BFCD0BFF32F
:101F80005F8F224F8000E11B89108A0052181301D5
:101F9000D2181302D2181304D3181D4A5B005B1821
:101FA00091680958A9421CD00622BA5693421CD007
:101FB0001222BA56934222D01E22BA56934220D001
:101FC0002A22BA5603219A4210D0124A117813706D
:101FD000A171BFF35F8F00220B4B1A6086F310884C
:101FE000F8BD92680C491150EFE700214A005218E1
:101FF000FF219200BA18917108499180E5E701210B
:10200000F4E70221F2E7C046240100D0CC02002010
:1020100000ED00E0780D0020CD01001000BDFFFFB5
:10202000F0B500220324FF27802620003D00094B45
:1020300011009C461040C0008540A14361440B68DC
:102040000132AB43350085402B430B60202AECD195
:10205000F0BDC04600E400E010B5002800D110BD7E
:1020600000F086FCFBE7C04610B5094A030014687F
:1020700084B0002C08D0012200910648524203A9E6
:10208000A047012004B010BD00F080FC0020F9E75B
:102090004C0D00205920001001480421014B184725
:1020A00020030020C9200010142310B50100188857
:1020B00004331B88984710BD162310B501001888FB
:1020C00002331B88984710BDF0B5C64600B50029FD
:1020D00016D01423040001259846182789004618B5
:1020E0004346216818883B88984701C4431E98419D
:1020F00040420540A642F3D1280004BC9046F0BD02
:102100000125F9E7134A936F9B0813D210665166B5
:10211000002905D0FFE7FFE7FFE7516F106F704719
:1021200004B5002801D00020C04301F09DF9002132
:1021300004BDC046936F5B08FDD3F0B5946ED56EB9
:10214000576F166FFFF7E2FF9466D56657671667FD
:10215000F0BD0000000000D094464E4A926F9208F5
:10216000624601D230E0C046F0B54A4EB56F6D0808
:10217000FCD3346E756E776F366F00F025F8944699
:10218000444A14665566576716676246F0BDC046F6
:102190009446404A926F9208624601D258E0C04687
:1021A000F0B53C4EB56F6D08FCD3346E756E776F2D
:1021B000366F00F04DF89446364A146655665767F8
:1021C00016676246F0BDC046002B24DB11D0002903
:1021D0003EDA00B5C943404200D1013100F038F881
:1021E000C943404200D10131DB43524200D10133A7
:1021F00000BD002AEBD1002801D1002905D0002024
:10220000C90FC90701D1C043410800B501F01CF94D
:102210000022002300BD00B500290ADBDB43524247
:1022200000D1013300F014F8C943404200D101311C
:1022300000BDC943404200D10131DB43524200D1CD
:10224000013300F005F8DB43524200D1013300BDF9
:10225000002923D1002B18D1002A0CD0BC460D4FE9
:1022600038667A6600210023FFE7FFE7FFE77A6F11
:10227000386F67467047002801D00748010000B555
:1022800001F0E2F80022002300BD02000B00002054
:1022900000217047000000D0FFFFFFFF002B00D09F
:1022A000BDE0130C26D1002AE7D080B4104F396668
:1022B0007A66FFE7FFE730B4040C7B6F396F1B04CD
:1022C00023433B66FFE7FFE7FFE7C04684B27B6F2F
:1022D0003D6F1B0423433B66FFE7FFE7C046002337
:1022E0002C042D0C7A6F386F00196941B0BC70470F
:1022F000000000D0F0B594460025140E01D1120262
:102300000835140F01D112010435940F01D1920048
:102310000235D40F01D152000135D40B0134254FC1
:102320007C66254C3C660E0C93B2FFE7FFE7FFE7A7
:102330003C6F6643360C7703BE467343DF0B5B048A
:10234000C01AB941130C7343DB18C91ACE0866438F
:10235000360CB64493B273431F0F1B01C01AB94128
:10236000130C73431F0B1B05C01AB941860D8F0256
:102370003E436643360C092D24DB520A7243801A11
:102380007703460A6643360C16235B1BDE40DF40AC
:10239000BF1964466643821B70460435063301004C
:1023A000D940A840C01900D30131A24206D200236F
:1023B000F0BD0000000000D0FFFFFFFF121B013046
:1023C000F3D3F1E709277F1BFE406446A2B27243B4
:1023D000801A00D20139220C7243130C1204821AA3
:1023E00099410B007046043513370100F940A840AD
:1023F000801900D30131002B02D1A2420AD2F0BDD4
:10240000013000D30131121BFAD2013BF8D1A242B4
:1024100000D2F0BD013000D30131121BF7E7F0B557
:102420001C0C00D080E00CB400251C0A04D11B0257
:10243000160E3343120208351C0B04D11B01160F74
:102440003343120104359C0B04D19B00960F334398
:1024500092000235DC0B02D192185B4101351C0061
:10246000971864410134464F7C66464C3C660E0C1E
:10247000FFE7FFE7FFE7C0463C6F6643360C770394
:10248000BE4697B27743C01B00D20139C01B00D2B1
:1024900001399FB27743C91BC91B170C77437E04D0
:1024A000FF0B801BB941CE086643360C0C2D33DB85
:1024B000B644120B1F053A431B0B97B27743C01B60
:1024C00000D201399FB27743C91B170C77433E04F2
:1024D0003F0C801BB941860D8F023E43664329277E
:1024E0007F1BFE400C3D7746AF40BF1930BCA2B207
:1024F000ABB272437343801A9941220C7243130C9E
:102500001204801A994102000B000137001BA941F7
:10251000F9D2781E0021F0BD0C277F1BFE407746C4
:102520007F0BAF40FF19E0E700245D1C07D0144F7C
:102530007D663966FFE7FFE7FFE7FFE73C6F95B28F
:102540009EB265436643401BB141150C1E0C6543AA
:10255000664336042F0C3E432D04401BB141994283
:1025600004D202000B0020000021F0BD01D19042F6
:10257000F7D3801A994101349942F2D3F6E700006B
:10258000000000D0FFFFFFFF132370B51D78012D61
:1025900010D00BDD2448FFF78FFD244C0100802272
:1025A000200000F01DF9022D01D070BD1F4C204A03
:1025B000A264FAE72E001D4C1D4AA3085B421E4090
:1025C0001D422FD0330022602020B1006118801BF3
:1025D0000A604A608A60CA600A614A618A61CA61A7
:1025E0000A624A628A62CA620A634A638A63CA6387
:1025F0000A644A648A64CA640A654A658A65CA6567
:102600000A664A668A66CA660A674A6740081028E8
:1026100003D18A67CA67A264C7E71E339B00E250F2
:10262000A264C2E70023CFE753440000880E0020D5
:102630003526001007B5604601880A0A0230DF2AF5
:10264000FAD1C9B2820804D302884088000410433A
:1026500000E00068014A5050039007BD880E00203A
:10266000484041404840064B5B681847044B1B6894
:102670001847034BDB681847014B9B68184700005D
:10268000880F002007B548404140484001E0C0465F
:1026900007B54200120E03D0FF2A03D1420218D818
:1026A000C00DC0054A00120E03D0FF2A03D14A0212
:1026B0000FD8C90DC9050122414005D4414001D5BB
:1026C000814207BD884207BD0143491801D0C0437C
:1026D000001807BD00B5FFF7DBFF804100BDC04615
:1026E000C10FC90700D54042002817D0F44603B4F3
:1026F0000B4B1B68984706BC81409E384042803196
:1027000007D20B0607D04900490AC0051043084309
:1027100060470130F8E7490A8902F5E77047000091
:1027200088100020132310B512481C78FFF7C4FC52
:102730000100012C0AD003DD80220F4800F050F880
:102740000E48FFF7B1FC0E4B186010BD0A4C542226
:10275000200000F045F80B4B6365A365E365236635
:102760006366A366E36623676367A367E367236221
:10277000E361E5E753460000880F00204C3300007A
:10278000881000208927001007B5604601880A0AD2
:102790000230DF2AFAD1C9B2820804D30288408805
:1027A0000004104300E00068014A5050039007BD48
:1027B000880F002010B500F0D9F910BD10B500F059
:1027C0009BF910BD01480421014B1847300300203C
:1027D000C9200010014B1B6818470000300300207F
:1027E000014B5B681847000030030020F8B54746EE
:1027F000CE460D0080B516000700002A20DD4B1ED6
:1028000098461A4B002400209946002C2BD04346B2
:102810001B5D0D3B5A425341DBB22A5D0A2A13D09D
:102820000134A642F1DC864203DD311A3B682818E8
:102830009847AD19013D2B780D3B5A4253413B74EB
:102840000CBC90469946F8BD002BE9D1A04203DAB2
:10285000211A3B6828189847484602213B680134F2
:1028600098472000DDE73B7CD7E7C046D08C0E10B0
:10287000F0B557464546DE464E46D023E0B51B062A
:102880001C68374B83B007000D00180001A9904663
:102890009A4600F0F1FD8146002807D1019B9C4239
:1028A00004D0504600F0F8FD012399466B1C03D17B
:1028B000380000F04BFC05002A4B1C68002C2FD080
:1028C0000A23294E9B4602E0E468002C28D02268A7
:1028D000002AF9D03368002B01D0A342F4D1637CE5
:1028E000002B2AD02A0039002000FFF77FFF434643
:1028F000002BE9D06B465A461A71637C002B20D01E
:10290000237C002B26D00121236801A898476B4621
:102910001B790D3B5A4253412374E468002CD6D1F5
:102920004B46002B12D1681E8541E8B203B03CBC77
:1029300090469946A246AB46F0BD29003800904724
:10294000D5E70121236801A89847BDE7504600F06C
:1029500073FDE8E70221054823689847D7E7C0469A
:10296000980B0020400D0020440D0020D08C0E104C
:1029700010B582B06B4604000022D81D01210470FE
:10298000FFF776FF200002B010BDC04670B504000E
:1029900000F0DCFB0122010005002000FFF768FFCA
:1029A000084B1C68002C06D06368002B05D09847A4
:1029B000E468002CF8D1280070BDE468002CF3D145
:1029C000F9E7C046400D00200D4A1368002B13D0D4
:1029D000834202D109E0984208D01A00DB68002B3C
:1029E000F9D1002900D0D06070471A000029FBD12E
:1029F000DB68D360C160F7E70029F5D01060F3E72A
:102A0000400D002010B500F03BF810BDF0B50029D6
:102A100010D045180D272021094B0A4A00269E5F39
:102A20000478A64207D093691942FCD101301460A2
:102A3000A842F5D1F0BD93691942FCD11760F2E7C5
:102A4000840E00200040034030B50500002000291E
:102A500010DD1024094A013D93691C4208D1013060
:102A600093691C42FCD113682B548142F4D130BDD0
:102A70000028FCD103204042F9E7C0460040034053
:102A8000E12110B50A4B49021B780A4B0A481B7812
:102A9000FDF7D8FF02210020FDF720FF02210120D1
:102AA000FDF71CFF01210548FFF78EFF10BDC04652
:102AB000308D0E10348D0E10004003404003002076
:102AC00001230121084A1360084A1360084A0800DC
:102AD00093689843FBD1074A11608021490013682D
:102AE0000B42FCD07047C04600E0004000F00040C0
:102AF00000C0004000C0044010B5044B0A001B6831
:102B00000100180000F004F810BDC0465803002072
:102B100010B5514300F03EF8041E0ED00300083BF0
:102B20005A6803239A43043A242A15D80300132A27
:102B300005D800221A605A609A60200010BD00215A
:102B40000833016041601B2AF3D98160C160242AE7
:102B500006D003001033ECE70021FFF73BFEECE763
:102B60000300016118334161E3E7C04610B5034B30
:102B70000100186800F00EF810BDC0465803002090
:102B800010B5034B0100186800F064FB10BDC0468F
:102B900058030020F0B557464546DE464E46E0B5A0
:102BA0000D000B3583B00700162D22D8102900D94F
:102BB000BBE000F0B5FA102518230220D14EF3181F
:102BC0001A005C68083A944200D1BEE003236268B0
:102BD0009A431300E268A168CA6091600122E31879
:102BE000596838000A435A6000F09CFA2000083007
:102BF0009EE007239D4300D597E0A94200D994E0C9
:102C000000F08EFAF823FF339D4200D8ADE1680A48
:102C100000D194E0042800D980E138239846A8091F
:102C200080443930C100B74E71180839CC68A142D0
:102C300018D0032362689A431300521B0F2A00DD49
:102C400036E1002AC6DA03239C4608E06246636840
:102C500093435A1B0F2A00DD2AE1002ABADAE468FE
:102C6000A142F3D1320034690832944200D177E0B6
:102C700003236168994389460B00491B0F2900DD36
:102C800077E1726132610029A8DA9F4A914500D943
:102C900010E1DA08012391108B40D200716892197B
:102CA0000B4391687360E260A1609460CC60012185
:102CB00082109140994259D80B4205D1032290438A
:102CC000490004300B42FBD003239846C3009946C9
:102CD000B144CC4682466346DC68A44507D129E16D
:102CE000002A00DB32E1E468A44500D122E142463B
:102CF000636893435A1B0F2AF2DD01208046611955
:102D000005436560A068E5680836C560A860404670
:102D1000F160B16010434860CE608E603800E250D0
:102D200000F000FA2000083002E00C2300203B6095
:102D300003B03CBC90469946A246AB46F0BD80210C
:102D40003F238900402098466DE7DC680230A342AB
:102D500000D03BE7320034690832944200D087E764
:102D600001217368821091409942A5D90323B46868
:102D700062689A439046AA4203D3531B0F2B00DD8F
:102D800088E023004344614A0193614B93469A468D
:102D900012681B68EB18013200D139E15D4A944694
:102DA00063441B0B1B0300930099380000F0BCF92F
:102DB00003008146013300D1F6E0019B834200D934
:102DC000F0E051464968009B8C46514663444B6095
:102DD00001991A00494500D14FE15B461B68013358
:102DE00000D154E14B4601995B1A9A1853465A6038
:102DF00007234A461A40019200D113E108214B46AD
:102E000089469B1A99440099434B49449B1A5B1A83
:102E10001B051B0D0091380019009B4600F084F93A
:102E2000431C00D14FE14B46C01A03005B440093A2
:102E3000534652465B6801215B4453604A4648460C
:102E4000B260009A0A434260B44200D123E1424694
:102E50000F2A00D821E107200C3A82436068014024
:102E6000052011436160A118486088600F2A00D9CD
:102E700034E14A464C4652685146C96A994201D2E9
:102E80005146CB625146096B994200D38EE05146C0
:102E90000B638BE001222900134311436519616024
:102EA0003800B5606B6000F03DF9200008303FE766
:102EB0004046D7E65A0A042A6ED9142A00D9C1E03E
:102EC00011005C325B31D20008235B429C46B21891
:102ED000944463469A6803239846944500D19AE047
:102EE000434651689943494502D992689445F7D1C0
:102EF000D3689C4673686146A260E1608C60D460D0
:102F0000D5E6C04690070020FF010000880700209A
:102F1000D00B00200F10000008100000142852D918
:102F2000542800D996E06E239846280B80446F30D1
:102F3000C10078E608239B46073BDC449B46DA4405
:102F400043465246134200D0C5E64CE00122E31846
:102F5000596838000A435A60E368A268D3609A60EF
:102F600000F0E0F820000830E2E62B00E808083323
:102F700024E6012360191D43656070613061C26001
:102F800082601A004B460A4342603800E15000F06C
:102F9000C9F820000830CBE69A09110039323831DF
:102FA000D20091E7B44260D0B468626803239A43C8
:102FB000531BAA4202D30F2B00DD6BE7380000F051
:102FC000B1F80020B4E65B23984680445C30C10031
:102FD00029E608235B429C46E1444B469B68013846
:102FE0004B4500D097E043460342F2D173688B43D0
:102FF00073604900994200D9B8E6002904D1B5E6CA
:10300000042294464900E2440B42F9D050465DE662
:1030100010330093C8E68910023B8B4071680B4364
:10302000736068E7009B38004B441B055B421B0D37
:1030300019009B4600F078F8431C00D0F3E600230B
:103040009B46F5E6542A2AD81A0B11006F326E31CE
:10305000D20039E7AA235B0098422AD8DD3B984684
:10306000E80B80447830C100DDE553465B68009A88
:103070009C46534662445A60AFE6090500D0ACE670
:10308000009AB468424401310A436260F4E65B4648
:103090004A461A60ACE64C46EEE641608EE7AA214D
:1030A00049008A4224D8DA0B110078327731D200F5
:1030B0000AE71A4B984224D87C239846A80C8044EF
:1030C0007D30C100AFE5009A019B94464A46083B1B
:1030D00063449B1A009300239B46A9E62100380015
:1030E000083100F0B7F85346B4685B686268C3E61D
:1030F0000A498A420BD89A0C11007D327C31D200E9
:10310000E2E6FE217E2389007F2098468BE5FE22A1
:103110007E219200D8E673686BE7C0465405000034
:103120007047C0467047C046002370B5064C050086
:1031300008002360FEF782FB431C00D070BD2368AB
:10314000002BFBD02B60F9E78C10002010B5830713
:1031500027D00378002B26D00300032102E01A7841
:10316000002A1CD001330B42F9D119680F4A104CC8
:103170008A188A4322420FD1043319680B4A8A18ED
:103180008A43224208D104331968084A8A188A43BC
:103190002242F1D000E001331A78002AFBD1181A3C
:1031A00010BD0300E1E70020FAE7C046FFFEFEFE87
:1031B00080808080F8B50C000600FFF7B1FF204F3B
:1031C000BB685D6803239D431E4B2C1B9C466444D7
:1031D000240B1D4B013C24039C4207DD00213000E1
:1031E000FFF7A2FFBB685B19984204D03000FFF7DD
:1031F00099FF0020F8BD61423000FFF795FF431CA6
:103200000DD00122BB682D1B15435D600F4B3000B4
:103210001A68141B1C60FFF785FF0120EAE70021F4
:103220003000FFF781FFBA68831A0F2BDEDD0849F3
:103230000968401A0549086001210B435360D5E72E
:1032400090070020EF0F0000FF0F0000D40B0020BC
:1032500088070020F0B5D6464F4646460500C0B563
:103260000C1E5CD0FFF75CFF210008394F68012479
:103270003B000322A343C81846689643B146664EF6
:10328000B268824200D175E04A4642608218944694
:103290003C4229D10F68C91B8A68DB1990466246F7
:1032A0005768082294462740B444BA46E04556D0B1
:1032B000CA68944642466746D7606246474697606A
:1032C0005246002A13D101224B44CF18BC468468D1
:1032D000524F1A43BC4200D17AE0C068E06084607B
:1032E0004A606246136005E057682742EBD01C43F2
:1032F0004C6003604A4A934216D8DB08FF3A9810A4
:10330000FF3A82407068DB00024372609E19B36826
:10331000CE608B60B160D9602800FFF703FF1CBC52
:1033200090469946A246F0BD5C0A042C3AD89C0906
:10333000200039343830E4003419083CA2680327EF
:1033400094423ED05068B843984202D99268944261
:10335000F8D1D468CC608A60A160D160DCE7002F2E
:1033600055D1C2684B4480681C43C26090604C6079
:10337000CB50D1E74B443C4206D10A68891A886891
:103380009B18CA68C260906001221A434A60254AAD
:10339000B16012689A42BFD8234B28001968FFF722
:1033A00009FFB9E7142C07D9542C19D81C0B20009D
:1033B0006F346E30E400BFE720005C345B30E40023
:1033C000BAE7012380108340706803437360C1E74C
:1033D000E160A1604A606246CC608C6013609BE74C
:1033E000AA204000844205D8DC0B200078347730D6
:1033F000E400A1E70D48844205D89C0C20007D34F0
:103400007C30E40098E7FE247E20A40094E71C436F
:103410004C60036080E7C0469007002098070020BA
:10342000FF0100008C070020D00B00205405000095
:10343000F8B5C0460000000001B40248844601BC53
:10344000604700BF5501002001B40248844601BC1A
:10345000604700BF9D02002001B40248844601BCC1
:10346000604700BF2D02002001B40248844601BC21
:10347000604700BF9D02002001B40248844601BCA1
:10348000604700BF0D01002001B40248844601BC22
:10349000604700BFBD01002001B40248844601BC62
:0834A000604700BFC1000020DD
:1034A80053797374656D20636C6F636B206F66204E
:1034B8002575206B487A2063616E6E6F7420626593
:1034C8002065786163746C792061636869657665E5
:1034D800640000008B8C8B8B8B8B8B8C8C8C8C8CF6
:1034E8008B8B8B8C8C8C8B8B8B8B8B8B8B8B8B8B21
:1034F8008B8B8B8B8B8B8B8B8B8B8B8B8B8B8B8B14
:103508008B8B8B8B8B8B8B8B8B8B8B8B8B8B8B8B03
:103518008B8B8B8B8B8B8B8B8B8B8B8B8B8B8B8CF2
:103528008B8B8B8B8B8B8B8B8B8B8B8B8B8B8B8BE3
:103538008B8B8B8B8B8B8B8B8B8B8B8B8B8B8B8BD3
:103548008B8B8B8B8B8B8B8B8B8B8B8B8B8B8B8BC3
:103558008B8B8B8B8B8B8B8B8B8B8B8B8B8B8B8BB3
:103568008B8B8B8B8B8B8B8B8B8B8B8B8B8B8B8BA3
:103578008B8B8B8B8B8B8B8B8B8B8B8B8B8B8B8B93
:103588008B8B8B8B8B8B8B8B8B8B8B8B8B8B8B8B83
:103598008B8B8B8B8B8B8B8B8B8B8B8B8B8B8B8B73
:1035A8008B8B8B8B8B8B8B8B8B8B8B8B8B8B8B8B63
:1035B8008B8B8B8B8B8B8B8B8B8B8B8B8B8B8B8B53
:1035C8008B8B8B8B8B8B8B8B8B8B8B8B8B8B8B8B43
:1035D8008B8B8B8B8B8B8B8B8B8B8B8B8B8B8B8B33
:1035E8008B8B8C8C8B8B8B8B8B8C8C8C8C8C8C8C1A
:1035F8008C8C8C8B8B8B8B8B8B8B8B8B8B8C8C8C0D
:103608008B8C8C8C8B8B8B8B8B8B8B8B8B8B8B8BFF
:103618008B8B8B8B8B8B8B8B8B8B8B8C8C8C8C8CED
:103628008C8C8C8C8C8C8C8C8C8C8B8B8B8B8B8BD8
:103638008B8B8B8B8B8B8B8B8B8B8B8B8B8B8B8BD2
:103648008B8B8B8C8C8C8C8C8B8B8B8B8B8B8B8BBD
:103658008B8B8B8B8B8B8B8B8B8B8B8B8B8C8C8CAF
:103668008C8C8B8B8B8B8B8B8B8B8B8B8B8B8B8BA0
:103678008B8B8B8B8B8B8B8B8B8B8B8B8B8B8B8B92
:103688008B8B8B8B8B8B8B8B8B8B8B8B8B8B8B8B82
:103698008B8B8B8B8B8B8B8B8B8B8B8B8B8B8B8B72
:1036A8008B8B8B8B8B8B8B8B8B8B8B8B8B8B8B8B62
:1036B8008B8B8B8B8B8B8B8A8B8B8B8B8B8B8A8A55
:1036C8008B8B8B8B8B8B8B8B8B8B8B8B8B8B8B8B42
:1036D8008B8B8B8B8B8B8B8A8A8A8B8B8B8B8B8B35
:1036E8008B8B8B8A8A8B8B8A8A8A8A8B8B8B8A8A2A
:1036F8008A8A8B8B8B8B8B8A8A8A8A8A8A8B8B8B1A
:103708008B8B8B8B8B8A8A8B8B8B8B8B8B8B8A8A05
:103718008B8A8A8A8A8B8A8A8A8A8B8B8A8A8A8AFD
:103728008B8B8B8B8B8B8B8B8B8A8B8B8A8A8988E9
:103738008A8D90908C857F7C7D828A939CA1A29EA5
:10374800989391939798969089837F7F80848889AE
:1037580087837F7F848A8E8D877F7A7B7F8383822E
:10376800807D79726B676973818F989A968F888448
:103778008182878F979C9E9D9D9C9B989592909007
:1037880092939394969BA0A19D9793919193928ED7
:10379800877F787578808A939590867C787B838BF1
:1037A80090929496999994897D75737A848D929262
:1037B8008D888585898E91918E8A898C929A9FA011
:1037C8009E9A97949392918E8C898684817F7C7936
:1037D800767473767B848E979D9D9890877F7B7B8C
:1037E8007E83898D8E8D8D8C8C8C8D8D8E8F919313
:1037F80093939393949594928F8C898784828282F1
:103808008487898A8A8987858586898D9093949308
:1038180092918F8D8B888685868788898886838212
:1038280083868B90939493918F909295989998957D
:10383800908C8A8A8A8A89888685878A8D909090D2
:103848008D8A8784828284888E949797948E8783C2
:10385800818183858686858382807F7E7D7E818443
:10386800898D9192918F8E8E8F9294959492919149
:1038780091918F8D8B8A8B8D9092949493928F8C4B
:103888008988888A8D8F90908E8C89878586888C88
:103898008F91908D8A888787898B8C8D8E8E8D8B62
:1038A8008A8887868685858483848587898B8B8AA1
:1038B80089878685848383838485868788888889A1
:1038C8008B8D8E8E8E8C8988898B8D8E8F8D8C8A30
:1038D80088888A8C8F9191908F8E8E8F9090908F00
:1038E8008E8C8B8B8B8D8E8E8D8D8D8D8D8D8D8D04
:1038F8008D8D8C8B8A8785838281807F7F80818371
:1039080085888C8F908E8A85817F8084898E91921C
:1039180092919090919395969595949392908E8D7F
:103928008B8A888786868687888786858587898C17
:103938008E909292908D8A88888B8F9293918E8A9E
:103948008785858586868687898B8E8F8F8E8D8CD9
:103958008C8D8F919395969694918E8C8A8A8B8C68
:103968008D8D8D8C8B8B8B8B8A8A898887878786B0
:1039780087878889898887858483838383838383EA
:1039880084868788888888888A8C8D8E8E8E8F8F8B
:103998008F8E8D8D8D8E8F8F8F8D8C8B8A8A8B8C51
:1039A8008D8D8D8D8D8C8B89868482828386888B84
:1039B8008C8C8A888787898B8D8F91939494939028
:1039C8008E8B8A8A8A8B8B8C8C8C8B8B8B8C8C8D38
:1039D8008C8B8B8B8C8E8F90908F8D8C8B8C8E910B
:1039E8009393918D898786868788898A8B8B8A8924
:1039F8008786868687888A8C8D8C8987858382814D
:103A08008385888B8C8C8B898785848486898E9125
:103A180093928F8D8B8A8A8B8D8E8E8D8C898787DA
:103A2800888A8C8C8B888584848688898A8A8A8B04
:103A38008C8E8F919394959492908F9090908E8B7A
:103A48008989898B8C8C8B8B8B8B8A898888898ACE
:103A58008A8A8A89898989898988878685848484E4
:103A680085868687898B8C8B8988898B8D8D8C8BB5
:103A78008B8B8C8E909292918E8B898A9095958E55
:103A8800878999B6D4E3D5AA6B2C0400205A96C12D
:103A9800CCB895786E788C989178573D35415975A2
:103AA8008B9AA1A5A6A2978879747E98B8D1D9CF08
:103AB800BBA9A1A2A8ABA5988678747B8A9BA8AB62
:103AC800A393847C7B7C7A767376808F9CA39F9368
:103AD80082726661646D7981817A726E7179808192
:103AE8007C736B6A6F7A858C8F8C8680808794A2B2
:103AF800ACB0AFABA6A29E9B9997979BA1A9B2B970
:103B0800BBB8AC9C8B7E797D8A9AA9B2AFA28C7522
:103B180065626B7B8B979B978C7E6E5E53515A6E5A
:103B2800889EAAA899846F605A5C636E7D8E9DA555
:103B3800A49A8A77675E5D636E7A848C8F908F8E85
:103B48008F9194979A9C9D9C9A9A9B9C9D9C9A98DD
:103B5800959493918E8A858484878C8F908F8A859B
:103B680083848A949EA6A8A49C9289837F7E80845D
:103B78008A8E91908D8885838383828180818891C4
:103B88009BA2A5A39E98918A827B77777B81868862
:103B98008684817F7C78726F6F73797D807F7D7A70
:103BA8007878797B7F868F99A2AAAEAFAAA1978DE4
:103BB80088888B9092908B8581808285898A898577
:103BC8007F7974747880888C8A837A747378808813
:103BD8008F939594918C86827F7F8185888B8C8C3E
:103BE8008B8B8B8B8E949EA9B2B5B0A495877F7E64
:103BF800838C959DA2A4A29B948C878382828487C0
:103C08008B90959695918C8987898C9095979792AA
:103C18008A807774767C858D929392908E8D8D8C28
:103C28008A86827E7B7C7F858B8F908D8780797555
:103C38007475787B7D7D7B7977787C81868A8D9099
:103C480094999EA09E99939091969DA4A9A9A7A3A3
:103C58009E99948E8A88898C909393928E8B89876B
:103C68008583807F7F8083878A8B8B8A8887898EEC
:103C7800959A9C99938B85818183868A8F93949159
:103C88008A827B77797F868D92939391908F8F8F9D
:103C98008F8E8E8F90919393928F8B8683807E7D6B
:103CA8007C7C7D7E80817F7B7674757B838A8E8E1B
:103CB8008B86838385878A8C8C8D8D8C8B89878571
:103CC80085878B8F939696959392929497999A9BC2
:103CD8009B9DA0A2A3A29E999591908F8E8C898579
:103CE80082807E7D7C7C7C7E8082838381807F82D3
:103CF800868C929799999794918E8C8A8A8A8B8DC3
:103D08008F919191908E8D8B878481808184888A10
:103D18008A8988888889898785827E7C7B7C7F825E
:103D28008485837F7C797777797C8084888B8D8D77
:103D38008C8A88858484858688898A8A8A8A8B8CF5
:103D48008C8D8E8F8F8F909193949392919293955F
:103D5800979694908D8C8D90949697948E867F7B71
:103D68007B7F868D91928E8A858180818486898DDC
:103D780092989C9D9A938D89898B8F908F8D8A8834
:103D8800888785827E7A78797C8084868685848512
:103D980087898B8B8A8989898989888888898B8D85
:103DA8008E8D89858282838587878686878A8E908D
:103DB80091908E8D8C8B8A898B8D92969897948F03
:103DC8008B888785848382828385898C8F8F8E8C6C
:103DD800898787898C8E8F8D8B8A898A8C8E8E8D28
:103DE8008B88858382818182838587878785848381
:103DF8008485868787898C8E9191908E8A86838226
:103E08008285888A8C8C8C8C8D8D8D8D8C8B8A8903
:103E180089878684848486898C8E8F8E8D8B8A8B05
:103E28008B8C8B8B8A8A8B8C8D8E8D8C8A898887DC
:103E3800878788898A8C8D8E8F8F8F8E8E8D8C8CBC
:103E48008D8F91939392908D8B888787898C8F9291
:103E580093918E8B88868584838486898E929495A7
:103E680094928F8D8C8B8C8D8E8F8F8E8D8B8A8A72
:103E78008A8B8C8B8A8885848282838485868685D2
:103E880083817F7F818385878888898989888889D4
:103E98008A8C8E8F90919292918E8B888685868857
:103EA8008A8D9091918E8A8683828386898B8C8C69
:103EB8008C8B8A89888787888A8D8F919292908E39
:103EC8008C8B8A89898B8D8E8F908F8C898685843F
:103ED80086898C8E8E8D8B8A8987868687898C8F3A
:103EE8009091919191919190908F8D8C8B8A8887E8
:103EF8008685848586898B8C8D8D8C8B8A8988882C
:103F080088898B8E909191908F8D8A8987878787F2
:103F1800878685838383838585868685858585854C
:103F2800858586888C8F9192918F8C8987858586E7
:103F3800888A8C8C8C8A8785828180818385878812
:103F480089898A8A8A8887858587898B8C8D8C8AD6
:103F5800898888878686868788898A8A8A898888D8
:103F6800898A8B8C8D8D8C8B8A89888888898A8AA6
:103F78008A898787868686868686868687878888CA
:103F8800898A8B8B8C8C8C8B8B8B8B8C8C8C8C8B75
:103F98008B8A8A89888786858586878888878685A3
:103FA80086878A8B8B8B8A89898A8A8A898A8B8C6D
:103FB8008D8D8E8E8F9090908F8D8B8A89898A8B2C
:103FC8008B8B8B8B8B8A8A89898887868585868661
:103FD800878888898989888684838385888A8C8C60
:103FE8008B898887878787878788898A8A89898844
:103FF800898A8B8B8B8B8B8B8C8C8D8C8A8989890E
:104008008B8D8F8F8E8C8B898989898A8B8C8D8EED
:104018008D8C8B8B8A898989898989898A8A8B8CF5
:104028008C8C8B8A898989898989898989898A8AED
:104038008A8B8B8C8B8A89878686868687878889F0
:10404800898888878687888A8C8E8E8E8D8C8B8BC4
:104058008B8B8B8C8D8D8D8B8A88878788898A8AB4
:10406800898989888888898A8B8C8D8D8D8D8D8C9E
:104078008C8C8C8C8B8A8A8B8C8D8E8E8D8C8A897D
:104088008888888A8C8D8F8F8E8D8C8B8B8B8C8C6F
:104098008C8B8B8989888889898A8989898A8A8B7E
:1040A8008A898988888888888888898A8B8B8A8879
:1040B80086858485858687878786858483838384A8
:1040C80086888A8B8C8B8A8886858687898A8B8B5B
:1040D8008B8A8A8A89888888898B8C8D8D8D8D8D2D
:1040E8008C8B8A898888898A8A8B8B8B8B8B8A8A26
:1040F80089898A8B8C8D8D8D8D8D8D8D8D8D8C8BF9
:104108008A888788888A8A8A8A8887868686878727
:1041180088888889898A8B8B8B8B8B8A8989898AFD
:104128008B8D8D8C8B8989898A8B8C8D8D8C8C8BD2
:104138008A8A8A8A8A8A8A8B8A8A898888898A8BDB
:104148008B8A8A8989898A8B8B8A8A8A8A8A8B8BC5
:104158008B8B8B8A89898889898A8A8B8A8A8A8BB8
:104168008B8B8C8B8B8A89878685858585868788C6
:104178008989898988878686868688898B8C8C8CAC
:104188008B8A89898A8B8C8C8D8D8C8B8A8989887E
:10419800898989898989898989898A8A8B8C8C8C7A
:1041A8008B8B8A8A8A8A8B8C8D8E8E8D8C8B898854
:1041B8008888898A8A8B8B8B8A898887868687886C
:1041C800898A8A8B8C8C8C8B8A8988898A8B8D8E3C
:1041D8008E8E8D8C8A898786868788898A8A8A8A3C
:1041E8008987868687888A8B8C8C8B8A888787873D
:1041F800898B8E8F8F8D8A8886858687888A8B8C17
:104208008C8B8886858486888A8C8E8E8D8C8B8B09
:104218008A8A8A8B8B8B8A8987868585868788890F
:104228008A8B8C8B8B8A8988898A8B8D8F8F8F8ECE
:104238008D8B8A898989898A8A8B8B8C8C8C8C8CCA
:104248008C8C8B8A8A89898A8B8C8D8E8E8E8D8CAC
:104258008A898989898A8B8B8C8D8D8D8C8B8B8AA9
:10426800898887878787898A8B8B8A898988898BB8
:104278008C8D8D8C8C8B8A8988878787898B8C8D90
:104288008D8C8B89888786868687898C8E9091917C
:10429800908E8C8B8A8A8B8C8C8D8C8B8A88878766
:1042A80087888989898989898989898989898A8A77
:1042B8008A8A8B8B8B8B8B8B898886858586878969
:1042C8008A8B8B8B8A8A8B8B8C8C8B8B8A8B8C8D35
:1042D8008F8F8F8E8C8B8A89888888898A8B8B8A26
:1042E800888786868687878788898A8B8C8C8C8C3A
:1042F8008B8B8A8A8A8B8C8D8D8D8D8C8C8C8B8BFD
:104308008A8A89898889898A8B8B8C8B8B8A898907
:1043180089898A8A8B8C8C8D8D8E8E8F8F90908FC9
:104328008E8C8A89898A8B8C8D8D8C8B8A8A8A8AD5
:104338008B8B8C8C8C8C8B8A8989888889898A8AD2
:1043480089898988888787868686868685868687F6
:104358008888898989888888888888898A8A8B8BC7
:104368008A898887888A8B8D8D8D8C8B8B8A8A8B9E
:104378008C8C8C8C8B8B8B8B8B8C8C8C8C8B8A8A7F
:104388008A8A8A8B8B8C8C8C8C8C8C8C8C8D8D8D6A
:104398008D8D8D8D8C8C8B8A8A8A8A8B8C8D8D8D58
:1043A8008C8C8B8B8B8C8C8D8D8E8E8E8D8D8D8C3D
:1043B8008C8C8C8B8B8B8B8B8B8C8C8C8C8D8D8D38
:1043C8008D8C8C8B8B8B8A8A89888889898A8A8A42
:1043D8008A8989888887878788888989898889894F
:1043E8008A8A8B8B8B8B8A8A8A8A8B8B8C8C8C8C17
:1043F8008B8B8A8A8A8A8B8B8B8A8A898989898A14
:104408008B8B8C8C8B8B8B8B8A8A89898A8A8B8BFA
:104418008B8B8B8B8A8A8A8A8A8B8B8B8B8B8B8BE9
:104428008A8A8A8A8A8C8D8E8D8D8B8B8A8A8A8BD2
:104438008B8B8C8C8C8C8B8B8A898888888A8B8DCB
:104448008D8D8C8B8A89888888898A8B8C8D8C8BBA
:104458008A89888888898A8A8B8B8B8A89898989BD
:10446800898A8B8C8C8C8B8A8989898A8B8C8C8C99
:104478008B8A8A8A8A8B8B8B8B8B8B8A8A8A8B8B8B
:104488008C8C8C8D8D8E8E8D8C8A8989898A8A8B6D
:104498008B8B8A8A89898989898A8A8B8B8A8A8976
:1044A800898A8A8B8C8D8D8D8D8D8D8C8C8B8B8B49
:1044B8008B8B8B8C8C8C8C8B8B8A89898989898A4C
:1044C8008B8B8B8B8B8B8B8A8A8A89898A8A8A8A3F
:1044D8008A8A8A8A8A8A898988888889898A8A8B3D
:1044E8008B8B8B8B8A8989898989898A8A8A8A8B25
:1044F8008B8C8C8B8B8A89898A8B8C8C8D8D8D8DFE
:104508008D8D8D8D8D8D8D8D8D8E8E8E8E8E8E8DCD
:104518008D8C8B8A8A89898A8A8A8A8A8A898988F3
:104528008888888989898A8A8A8A8A8A8A8B8B8BE9
:104538008B8C8C8C8C8D8D8D8C8C8B8B8A8A8A8ABB
:104548008A8A8A8A8A8989888888888889898989D3
:104558008A8A8A8B8B8A8A8A8B8B8B8B8B8B8B8BA9
:104568008C8C8C8B8B8A8A8A8B8B8B8B8A8A8A8A97
:104578008A8A8A8A8A8B8B8B8B8A8B8B8B8B8C8C87
:104588008C8D8D8D8D8D8C8C8C8C8B8B8B8B8B8B64
:104598008B8C8D8D8D8D8D8C8C8C8B8B8B8C8C8C52
:1045A8008C8D8D8D8D8D8D8D8C8B8B8B8B8B8B8C42
:1045B8008C8C8D8C8C8B8A8A898989898A8A8B8C48
:1045C8008C8D8D8D8D8C8C8B8B8C8C8D8D8D8D8D1C
:1045D8008C8C8B8B8A8A8A8A8A8B8B8A8A8989892E
:1045E80089898989898A8A8B8C8C8D8D8D8D8C8B14
:1045F8008A8A8A8A8B8B8B8A898989898A8A8B8C11
:104608008C8C8C8C8C8D8D8E8E8E8D8D8D8E8E8ED1
:104618008D8D8C8C8C8C8B8B8B8B8A8A8A8A8A89E1
:10462800898989898A8A8B8B8C8C8C8C8D8D8D8DD0
:104638008D8C8D8D8E8E8E8E8E8D8D8C8C8C8B8BA5
:104648008B8B8B8B8B8A8A8A8A8A8A8A8A8A8A8ABD
:104658008A8B8B8B8B8B8B8B8B8B8B8B8B8B8B8BA3
:104668008C8C8C8C8C8B8B8B8B8A8B8B8B8C8C8C8B
:104678008C8C8B8B8B8B8B8B8C8C8C8D8C8C8C8C77
:104688008C8C8C8C8C8B8B8B8B8B8B8B8B8B8B8C6C
:104698008C8C8C8C8B8B8B8B8B8C8C8C8C8C8C8C57
:1046A8008C8C8C8C8B8B8B8B8B8C8C8C8C8C8C8C47
:1046B8008C8C8C8B8B8B8B8B8B8B8B8A8A8A8A8A44
:1046C8008A8B8B8B8B8A8A8988888889898A8B8C44
:1046D8008C8C8C8B8B8B8A8A8A8A8A8B8B8B8B8B24
:1046E8008B8A8A8A8A8A8989898989898A8A8B8B25
:1046F8008B8B8B8B8B8B8B8B8C8C8C8C8C8C8B8BFC
:104708008A8A8B8B8C8C8D8D8C8C8C8B8B8B8B8BEA
:104718008B8B8B8C8C8C8C8C8C8C8B8B8A8A8989E0
:104728008989898A8A8A8A8B8B8B8B8B8B8C8C8CD8
:104738008C8C8C8C8C8B8B8C8C8D8D8D8D8D8C8CAE
:104748008C8B8B8B8B8B8C8C8C8C8C8B8B8B8B8BAB
:104758008B8B8A8A8A8A8B8B8B8B8B8B8B8B8B8BA5
:104768008B8B8B8B8B8B8C8B8B8B8B8B8B8C8C8C8D
:104778008C8D8D8E8E8D8D8C8B8A8A8A8A8B8B8C74
:104788008C8D8C8C8B8B8A8A8A8A898989898A8A7A
:104798008A8A8B8B8B8C8C8B8B8B8B8B8C8C8C8D5C
:1047A8008D8D8C8C8C8B8B8B8B8C8C8C8D8D8E8D3E
:1047B8008D8D8C8C8B8B8A8A8A8A8A8A8B8B8B8B41
:1047C8008B8B8A8A8989898989898A8A8B8C8C8C3E
:1047D8008C8C8B8B8B8B8B8B8B8C8C8B8B8B8B8B1D
:1047E8008C8C8C8C8D8D8D8D8C8C8B8B8B8B8B8C02
:1047F8008C8C8C8C8C8C8C8C8C8C8C8C8C8D8D8DEE
:104808008C8C8C8B8B8B8B8B8C8C8D8C8C8B8B8AE8
:104818008A8A8B8B8B8C8C8C8C8C8C8B8B8B8A8ADE
:104828008B8C8C8D8D8D8D8C8C8B8B8B8B8B8B8BC4
:104838008B8B8B8B8B8B8B8B8C8C8C8C8C8C8C8CB8
:104848008C8D8D8D8D8D8D8D8D8D8D8D8D8D8D8D91
:104858008D8C8C8C8B8B8B8B8B8B8A8A8A8A8989A3
:10486800898A8A8B8B8C8C8B8B8B8A8A8A8B8B8C94
:104878008C8D8D8D8C8C8C8B8C8C8C8C8C8C8C8C6E
:104888008B8B8B8B8B8C8C8C8D8C8C8C8B8B8B8B68
:104898008C8C8C8C8C8C8C8C8C8B8B8B8A8A8A8A5B
:1048A8008A8A8A8A8A8A8A8A8A8A8A8A8A8B8B8B5D
:1048B8008C8C8C8C8C8C8C8C8B8B8B8B8B8B8B8B38
:1048C8008B8B8B8B8C8C8C8D8D8C8C8C8C8C8C8C22
:1048D8008D8D8D8D8D8C8C8C8C8D8D8D8D8D8C8C06
:1048E8008B8B8B8B8B8B8B8C8C8D8D8D8D8D8D8D00
:1048F8008C8C8B8B8B8B8B8C8C8C8C8C8C8C8C8CF5
:104908008B8B8B8A8A8A8A8B8B8B8B8B8B8B8B8BF3
:104918008B8B8B8B8B8B8B8B8A8A8A8A8A8A8A8AE7
:104928008A8A8A8B8B8B8B8B8C8C8C8C8C8C8C8CCA
:104938008B8B8B8B8C8C8D8D8D8D8C8B8A8A8A8BB7
:104948008B8B8C8C8C8C8C8C8B8B8B8C8D8D8D8DA0
:104958008D8C8C8B8B8B8A8A8A8B8B8B8B8B8B8C9D
:104968008C8B8B8B8B8B8B8B8B8C8D8D8E8E8E8D7E
:104978008D8C8C8C8C8C8C8C8C8C8C8C8C8C8C8C6E
:104988008C8C8C8B8B8B8B8B8B8C8C8C8C8B8B8A69
:104998008A8A8A8A8A8A8A8A8A8A8A8A8B8B8B8B6B
:1049A8008B8B8B8B8B8B8B8B8B8A8A8A8A8A8A8B55
:1049B8008B8B8B8B8B8B8C8C8C8C8C8C8C8D8E8F2F
:1049C8008F909090908F8E8E8D8D8D8D8E8E8E8EF9
:1049D8008E8E8E8D8D8D8D8D8D8E8E8E8E8D8D8DF8
:1049E8008C8C8C8B8B8B8C8C8D8D8D8D8C8C8C8CFE
:1049F8008C8C8D8D8D8D8D8C8C8C8C8C8B8B8B8CED
:104A08008C8C8C8C8B8A8A8989898A8A8A8B8B8BF5
:104A18008B8B8A8A8A8A8A8B8B8B8C8C8C8C8C8DDC
:104A28008D8D8D8D8D8D8D8D8D8D8D8E8E8E8E8DAA
:104A38008D8C8B8B8B8B8B8B8B8B8B8C8C8C8C8CB6
:104A48008B8B8B8B8C8C8C8C8C8C8C8D8D8D8D8D9D
:104A58008C8C8C8C8C8D8D8D8D8D8E8D8D8D8D8C83
:104A68008C8C8B8B8B8C8C8C8D8D8D8D8D8C8C8B7D
:104A78008B8B8B8B8B8C8C8C8C8C8B8B8A8A8A8A7D
:104A88008A8A8A8A8A8A8A8A8A8A8A8B8B8C8C8C76
:104A98008C8D8C8C8C8C8C8C8C8D8D8C8C8C8C8C4B
:104AA8008C8C8C8C8C8B8B8B8B8B8B8B8B8B8B8B49
:104AB8008C8C8C8C8C8C8B8B8B8B8B8C8C8C8C8C33
:104AC8008C8C8C8C8C8C8C8C8D8D8D8D8D8E8E8E13
:104AD8008E8D8C8C8B8B8B8B8C8C8C8D8D8D8C8C0C
:104AE8008C8B8B8B8B8B8B8B8C8C8C8C8C8B8B8B08
:104AF8008A8A8B8B8B8B8B8B8B8B8B8B8B8B8B8B00
:104B08008B8C8C8C8D8D8D8D8D8C8C8C8B8B8B8BDD
:104B18008B8B8B8B8B8B8A8A8B8B8B8B8B8B8B8BDF
:104B28008B8B8B8C8C8C8D8D8D8D8C8C8C8C8C8CBC
:104B38008C8C8C8C8C8C8C8C8C8C8C8C8C8C8D8DAB
:104B48008D8D8D8D8D8D8D8D8D8D8E8D8D8D8D8C8D
:104B58008C8C8C8C8C8C8C8C8C8C8C8C8C8C8C8C8D
:104B68008C8C8C8C8C8C8C8C8C8C8C8C8C8C8C8C7D
:104B78008C8C8C8C8B8C8C8C8C8C8C8C8C8C8C8B6F
:104B88008B8B8B8B8B8B8B8B8C8C8C8C8C8C8D8D63
:104B98008D8D8D8D8D8D8D8D8D8C8C8C8C8C8C8C44
:104BA8008C8C8C8C8C8C8C8C8C8C8D8D8D8D8C8C39
:104BB8008C8C8C8C8D8D8D8C8C8D8C8C8C8C8C8B2A
:104BC8008B8B8B8B8B8B8B8C8C8C8D8D8D8D8D8D1E
:104BD8008D8D8C8C8C8C8D8D8D8D8D8D8C8C8C8B06
:104BE8008B8B8B8B8B8B8C8C8C8C8C8B8B8B8B8B08
:104BF8008B8B8C8C8C8C8C8B8B8B8B8C8C8C8C8CF3
:104C08008C8C8C8C8C8C8D8C8C8C8B8B8B8B8B8BE1
:104C18008B8B8C8C8C8C8B8B8B8A8A8B8B8C8C8DD6
:104C28008D8D8D8D8D8C8C8B8B8C8C8C8C8C8C8CB9
:104C38008C8C8C8B8B8B8B8B8C8B8B8B8B8B8B8BB8
:104C48008B8B8B8C8C8C8B8B8B8B8B8B8B8B8B8BA9
:104C58008B8B8B8B8B8B8B8C8C8C8C8C8C8C8B8B95
:104C68008B8B8B8B8B8A8B8B8B8B8B8A8A8A8B8B90
:104C78008B8B8B8B8B8B8B8B8B8B8B8B8B8B8B8C7B
:104C88008C8C8C8C8C8C8C8B8B8B8B8B8C8C8B8B63
:104C98008B8B8B8B8B8B8B8B8B8A8A8A8B8B8B8B5F
:104CA8008B8C8C8C8C8C8C8C8C8C8C8C8C8C8C8C3D
:104CB8008C8C8D8D8D8C8C8C8C8C8C8C8C8C8C8B2A
:104CC8008B8B8B8B8C8C8C8C8C8B8B8B8B8B8B8B27
:104CD8008B8B8B8B8B8B8B8B8B8B8B8A8A8A8B8B1F
:104CE8008C8C8D8D8C8C8B8B8B8B8B8B8B8B8C8C02
:104CF8008C8C8C8B8B8B8C8C8C8D8D8D8D8C8C8BEC
:104D08008B8B8B8C8C8C8C8C8C8C8C8C8C8C8C8CDE
:104D18008C8C8C8B8B8B8B8B8B8B8B8C8C8C8B8CD4
:104D28008C8C8C8C8C8C8C8C8D8D8D8D8D8D8C8CB5
:104D38008D8D8D8D8D8D8D8C8C8B8B8B8B8B8C8CA9
:104D48008C8D8D8D8C8C8C8C8C8C8C8C8C8C8C8C98
:104D58008C8C8C8C8B8B8B8B8C8C8C8C8C8C8B8B91
:104D68008B8B8B8C8C8D8D8D8D8D8D8D8C8C8C8B78
:104D78008B8B8B8B8B8B8B8B8B8B8B8B8B8B8B8B7B
:104D88008B8B8C8C8C8C8C8C8C8C8C8C8C8C8C8C5D
:104D98008C8C8C8C8C8C8C8C8C8C8C8B8B8C8C8C4D
:104DA8008C8C8B898887888A8E929597979694920F
:104DB80092939597989794908B8784838485868619
:104DC80085838383838383817F7E7E808181807EC8
:104DD8007C7A79797B7E81858A8D8E8F8E8C8B8B80
:104DE8008B8D8F9295969797969595949393939389
:104DF800949494959696979695949291908E8C8982
:104E0800878687898C8F90908D89868485878A8DFF
:104E180090929292908D8986858586898A8B8B8BD4
:104E28008A8A8B8C8E8F8F8F8F8F9092959797977A
:104E380095939291908F8E8D8C8A89878582807FB9
:104E48007E7D7E7F8286898B8B8B8987858484840F
:104E580086888A8B8C8D8D8C8C8B8C8C8D8E8E8F8E
:104E68008F8F8F8F8F8E8D8C8B8A89888786868689
:104E780086878889898989898A8B8C8D8D8E8E8D84
:104E88008D8C8C8B8A8A898988888786868687898B
:104E98008A8B8C8D8D8D8E8F909192939392919019
:104EA8008F8E8D8C8B8B8B8B8B8C8C8D8D8D8D8D34
:104EB8008D8C8B8B8B8C8D8E8F8F8F8E8D8C8B8A20
:104EC8008A8A8A8A8A89888786858585858688895F
:104ED8008A8C8C8D8E8E8F909091919292929191D6
:104EE8008F8E8D8C8C8C8C8D8D8E8F8F8F8E8D8CE4
:104EF8008B8A8B8C8D8D8D8D8C8C8B8B8B8B8C8CEE
:104F08008D8D8D8C8C8C8B8C8C8D8D8D8D8D8C8BD3
:104F18008B8A8A89898989888888888888888989FC
:104F28008989898888888888898989898A8B8C8DE4
:104F38008E8E8E8D8C8B8B8B8B8C8C8C8C8C8B8BA8
:104F48008B8B8C8C8D8D8E8E8F8F8F8F8F8E8E8D81
:104F58008D8D8D8D8D8D8D8D8D8D8E8E8E8D8D8D76
:104F68008D8C8C8B898887868686868686868687BA
:104F780088898A8A8A8A8989898A8B8C8D8E8E8E7D
:104F88008F8F90919293949393929190908F8F8E0C
:104F98008D8D8C8B8B8B8B8B8B8B8B8C8C8D8E8F49
:104FA800909090908F8F8E8F8F8F8F8F8E8D8C8B10
:104FB8008A8988888888898A8B8C8C8C8C8C8C8C44
:104FC8008C8D8D8E8F90908F8E8D8C8C8C8B8B8B07
:104FD8008B8B8A8A8A8A8A8A898989888888878736
:104FE8008787868685858484848484858586868764
:104FF80088898A8A8A8B8B8B8C8D8D8E8E8E8E8EED
:105008008E8E8F8F8F8F8F8F8F8E8E8E8D8D8D8CB6
:105018008C8C8C8C8C8C8C8B8B8A8A8A8A8A8A8AD8
:105028008A8989898889898A8B8C8D8D8D8D8D8CCB
:105038008C8B8B8B8B8B8B8C8C8B8B8A8A898A8ABB
:105048008B8B8C8C8D8D8D8C8C8C8C8C8C8C8C8C97
:105058008C8B8B8A8A8A8A8A8A8A898989898989AA
:10506800898A8A8B8B8C8C8B8B8A8988888889899A
:105078008A8A8A8A8A89898888898A8B8D8E8F8F7D
:105088008F8E8D8D8D8D8D8E8F8F8F8E8D8C8C8B41
:105098008B8B8B8A8A8A89898A8A8B8C8C8D8E8F56
:1050A8009191929292919190908F8F8E8E8D8C8CFF
:1050B8008B8B8B8A8A8A8989888888888989898953
:1050C800898988888788888889898989898989894F
:1050D80089898A8A8B8C8D8D8D8D8D8D8D8D8D8D09
:1050E8008E8E8E8D8D8D8D8D8C8C8B8B8B8B8B8BF3
:1050F8008A8A8A8A8A8A8A8A8A8A8A8B8B8C8C8B01
:105108008B8A8A8A8A8A8A8B8C8C8D8D8D8D8D8DDF
:105118008D8E8E8E8E8E8E8E8E8E8D8D8D8D8D8DAE
:105128008D8D8D8D8D8C8B8B8A8A8B8B8B8B8B8ABF
:105138008A8A8A8A8A8A8A8A8A8A8B8B8B8B8A8AC3
:10514800898989898A8A8B8B8C8C8C8C8C8C8C8CA9
:105158008D8D8D8D8C8C8C8C8B8B8B8B8A8A8A8A8F
:105168008A8A8A89898A8A8A8B8B8B8B8B8B8B8C90
:105178008B8B8B8B8B8B8A8A8A8A8B8B8B8B8B8B7B
:105188008B8B8B8B8B8C8C8D8D8D8D8D8D8C8C8C56
:105198008C8C8C8C8C8C8C8C8C8C8C8C8C8C8C8D46
:1051A8008D8D8D8D8D8D8E8E8D8D8D8D8C8C8C8C29
:1051B8008C8C8B8B8B8B8A8A8A8A8A8B8B8B8B8B3A
:1051C8008B8B8B8B8B8B8B8B8B8C8B8B8B8B8A8A28
:1051D8008A8A8A8B8B8B8B8B8B8B8B8A8A8A8A8B1E
:1051E8008B8B8B8B8B8B8C8C8C8C8D8D8D8D8D8CF8
:1051F8008C8C8C8C8B8B8B8B8A8A8989898A8A8AFE
:105208008B8B8B8B8A8989898989898A8A8B8B8BF5
:105218008B8B8B8B8B8B8B8B8B8C8C8C8C8C8C8BD0
:105228008B8B8B8B8B8C8C8C8C8C8C8C8D8D8E8EB5
:105238008F8F8F8F8F8F8E8E8D8D8D8C8C8C8B8B8F
:105248008B8A8A8A8A8A8A8A8A8A8A8B8B8B8B8BB0
:105258008B8B8B8B8A8A8A8A8A8A8A8A8A8A8A8AA2
:105268008A8A8A8A8A8A8A8A8A8A8A8B8B8B8B8A92
:105278008A8A8A8A8A8A8A8A8A8A8A8A8A8A8A8A86
:105288008A8A8989898888888989898A8A8B8B8B7F
:105298008C8C8C8C8B8B8C8C8C8C8C8C8C8C8C8D47
:1052A8008D8D8D8D8D8D8D8D8D8D8D8D8D8D8D8D26
:1052B8008D8E8E8E8E8E8D8D8D8D8D8D8C8C8C8C15
:1052C8008B8B8A8A8A8A8A8A8A8A8A8A8A8A8A8A34
:1052D800898989898989898A8A8A8B8B8B8B8B8B27
:1052E8008B8B8B8B8B8C8C8C8C8C8C8C8C8C8C8CFB
:1052F8008B8B8B8B8B8B8B8C8C8C8D8D8D8D8D8DE7
:105308008D8D8D8D8D8D8D8D8C8C8B8B8A8A8A8AD7
:105318008A8B8B8B8B8B8B8B8A8A8A8A8B8B8B8BDA
:105328008B8B8B8B8B8A8A8A8A8A8A8A8A8A8B8BCE
:105338008B8B8B8B8B8B8C8C8C8D8D8D8D8C8C8CA7
:105348008B8B8B8B8B8B8B8B8B8B8B8B8B8B8B8BA5
:105358008B8B8B8B8B8B8B8B8B8B8B8B8B8B8B8B95
:105368008B8B8B8A8A8A898989898A8A8A8B8B8B93
:105378008B8B8B8B8B8B8B8B8B8B8B8B8C8C8B8B73
:105388008B8B8B8C8C8C8B8B8B8B8B8B8B8B8B8B62
:105398008B8B8B8B8C8C8C8C8B8B8B8C8C8C8D8D4A
:1053A8008D8D8D8D8D8D8D8C8C8C8C8C8C8C8C8C2E
:1053B8008C8C8C8C8C8B8B8C8C8C8C8C8B8B8B8B2B
:1053C8008B8B8B8B8A8A8A8A8A8A8A8A8A8A8A8A31
:1053D8008A8A8A8A8A8A8A8A8A8A8989898989892B
:1053E8008A8A8A8A898887868687888B8E91949507
:1053F8009695949392929292918F8C8885828282CC
:10540800838383828080808182828281818181827C
:105418008281807E7B7978787A7D818588898A897E
:10542800888787888A8C8F91949596979696959574
:1054380095959696969697989999999898979594F8
:10544800918E8B8987888A8D8F91908E8A878584A3
:105458008486898C8E8F908E8B88848281828487C3
:1054680089898A8A8A8B8C8D8E8F90909192939558
:10547800969696949392919190908F8E8C8A888527
:1054880083817F7F7E7F8285888A8C8C8C8B8988BC
:105498008685858687888A8B8C8D8D8D8E8E8E8E5F
:1054A8008E8E8E8E8F909191908E8D8B8A89888822
:1054B8008889898A8B8B8A8A89898888898A8B8B4B
:1054C8008C8C8B8B8B8A8A89888887878786868647
:1054D800868788898B8C8D8D8E8F8F9192939393ED
:1054E8009291908E8D8C8B8A8A8A8A8A8B8C8D8DEC
:1054F8008E8E8D8D8C8B8B8B8C8D8E8F8F8F8F8ED0
:105508008D8C8C8B8B8B8B8A89888785848383840D
:105518008586888A8C8D8E8E8F8F909191929292AB
:105528009291908F8D8C8C8B8B8B8B8C8C8D8D8DA1
:105538008D8B8A8A8A8A8B8C8D8D8D8C8C8B8A8AAE
:105548008B8C8C8D8D8C8C8B8A8A8A8A8A8A8A8AA3
:105558008B8B8B8A8A8989888887878786868787BD
:1055680088888989888887868686868687878788BF
:10557800898A8B8C8C8B8B8A89888889898A8A8A84
:105588008A8B8B8B8B8C8C8D8D8E8F8F909091903E
:10559800908F8E8D8C8B8B8B8A8A8A898A8A8A8A4D
:1055A8008989898888888786858484838383848495
:1055B8008586868789898A8A8A8A8A8A8A8B8C8E4E
:1055C8008F8F909091919293949494939291908FBD
:1055D8008E8D8C8B8A8989898888888889898A8B25
:1055E8008B8C8D8E8E8E8E8E8E8E8E8E8F8F8E8ED7
:1055F8008D8C8C8B8B8A8A8A8A8B8B8C8C8D8D8DEB
:105608008D8D8D8E8F8F909090908F8E8D8C8B8BB3
:105618008B8B8B8B8B8B8B8A8A8A898989898989E1
:10562800898988888787868685858585858585850E
:105638008686878889898A8A8A8A8B8B8C8C8C8CC7
:105648008D8C8C8C8D8D8D8D8D8D8D8D8C8C8C8C89
:105658008C8D8D8D8D8D8D8D8C8C8B8B8A8A8A8B84
:105668008B8B8B8B8B8B8B8B8B8C8D8E8F8F8F8F6C
:105678008F8F8E8E8D8D8D8C8C8C8C8C8B8B8A8A5B
:105688008A89898989898A8B8B8C8C8C8B8B8B8B6B
:105698008B8B8C8B8B8B8A8A8A8A8A8A8A8A89895D
:1056A8008989888889898A8A8B8B8A898988878762
:1056B800878788898A8A8A8A8A89898888898A8B51
:1056C8008C8E8E8F8E8E8D8D8D8D8D8D8D8E8D8DFC
:1056D8008D8C8C8C8C8B8B8B8B8B8B8B8C8C8D8D06
:1056E8008E8E8F8F909090909190908F8F8E8D8CC2
:1056F8008B8A898989898988888887878686868622
:105708008686868686868686868686868686868631
:10571800868686878888898A8A8B8B8B8B8B8B8BEE
:105728008B8B8C8C8D8D8D8D8D8C8C8B8B8B8B8BB3
:105738008A8A8A8A89898989898989898A8A8B8BC7
:105748008B8B8B8B8A8A8A8A8A8A8B8B8C8D8D8E9F
:105758008E8E8E8D8D8E8E8E8E8E8E8E8E8E8D8D65
:105768008D8D8C8C8C8C8C8C8B8B8A8A8A8A8A8A7D
:105778008A898988888887878787878888888888A2
:10578800888887878787878889898A8A8B8B8B8A85
:105798008A8B8B8B8B8C8C8C8C8B8B8A8A8A898955
:1057A800898989888888888787888888898989896C
:1057B8008A8A8A8A8A8B8B8C8C8C8C8C8C8C8C8D2C
:1057C8008D8D8D8D8D8D8D8D8E8E8F8F8F8F8E8EF5
:1057D8008E8D8D8D8D8D8D8C8C8C8C8C8C8C8D8DF7
:1057E8008D8D8E8E8E8E8E8E8E8E8E8D8D8D8C8BDB
:1057F8008B8B8B8A8A8A8A8A8A8A8A8A8A8A8A8AFE
:105808008A8A8A8A8A8A8A8A8A8B8B8B8A8A8989EF
:1058180088888888888888898989898989898989F7
:105828008989898A8A8B8B8B8C8C8D8D8D8E8E8DB8
:105838008D8D8D8D8D8C8C8C8C8C8B8B8A8A8A8AA5
:105848008A8B8B8B8B8B8A8A8A89898989898989B2
:105858008989898A8A8A8A8A8A89898989898989AA
:10586800898988888989898A8A8A8A8B8B8B8B8B94
:105878008B8C8C8C8D8D8D8D8C8C8C8B8B8B8B8B62
:105888008A8A898988888888888888898988888888
:105898008888888888898989898989898989898975
:1058A800898989898989898989898989898A8A8B5C
:1058B8008B8B8B8B8B8A8A8A898989898989898A42
:1058C8008A8A8A8A89898888888888888889898943
:1058D80089898A8A8A8A8A8A89898989898989892A
:1058E8008A8A8B8B8B8B8B8B8B8B8B8B8B8B8B8B02
:1058F8008B8B8B8B8C8C8C8C8C8C8C8C8C8C8C8CE4
:105908008C8C8C8B8B8B8B8A8A8A8A8A8A8A8A8AE5
:105918008A8A8A8A8A898989898989898A8A8A8AE6
:105928008A8A8A89898A8A8A8B8B8C8C8C8C8C8CC3
:105938008C8B8A8A8A89898989898A8B8C8D8D8DB5
:105948008F91959A9FA2A3A2A09C9995928E8A86E0
:1059580082808082838484827F7E7E7F8081818032
:105968008080828382817F7C7977757475787C806A
:1059780084878888888888898B8D9195999C9E9F33
:105988009E9D9A98969595959697999B9C9C9B9A7F
:105998009898979693908C88858586898C8F908F18
:1059A8008D8986858586898C8F9292908D8985834D
:1059B8008282848688898B8D8E8F8F909091919228
:1059C800949597989999989796949392918F8E8D8C
:1059D8008C8986827E7B797777797C8084898C8DA7
:1059E8008D8C8B8A898886868688898B8C8D8D8E0E
:1059F8008F909191919090909192939391908D8B9B
:105A08008A89898889898B8C8D8D8C8A88868686F7
:105A180088898B8C8D8D8D8C8B8A898887868585E6
:105A2800848382818181828283858688898B8D8F18
:105A380091939393939291908F8D8B8A8989898979
:105A48008A8C8D8D8E8D8C8A8988878788898A8BA8
:105A58008C8C8C8C8B8B8A8A8A8A8A8989878685A2
:105A680083828181818385888A8C8E8E8E8F8F90A8
:105A780092949596969593908D8A8989898A8C8D2A
:105A88008E8F8F8E8D8C8B8A8B8C8D8E8F8E8D8C3E
:105A98008A888888898B8C8D8E8E8D8C8B89888757
:105AA8008786868787878787878685858484848392
:105AB800838383838384848585868686878788888D
:105AC80089898A8A8B8B8C8D8D8D8D8C8B8A8A8A1D
