:020000041000EA
:1000000000B5324B212058609868022188439860DF
:10001000D860186158612E4B002199600221596106
:100020000121F02299502B49196001219960352056
:1000300000F044F80222904214D00621196600F024
:1000400034F8196E01211966002018661A6600F04E
:100050002CF8196E196E196E052000F02FF8012189
:100060000842F9D1002199601B49196000215960AB
:100070001A491B48016001219960EB211966A021F2
:10008000196600F012F800219960164914480160C1
:100090000121996001BC002800D000471248134993
:1000A000086003C880F30888084703B5996A0420EC
:1000B0000142FBD001200142F8D103BD02B5186610
:1000C0001866FFF7F2FF186E186E02BD00000240BE
:1000D000000000180000070000035F00212200005C
:1000E000F4000018222000A00001001008ED00E03C
:1000F00000000000000000000000000074B24E7A12
:1001000000200420F7010010C3010010C5010010F9
:10011000C1010010C1010010C1010010C101001097
:10012000C1010010C1010010C1010010C701001081
:10013000C1010010C1010010C9010010CB01001065
:10014000CD010010CD010010CD010010CD01001037
:10015000CD010010CD010010CD010010CD01001027
:10016000CD010010CD010010CD010010CD01001017
:10017000CD010010CD010010CD010010CD01001007
:10018000CD010010CD010010CD010010CD010010F7
:10019000CD010010CD010010CD010010CD010010E7
:1001A000CD010010CD010010CD010010CD010010D7
:1001B000CD010010CD010010CD010010CD010010C7
:1001C00000BE00BE00BE00BE00BE00BE00F04BF888
:1001D000103800BEF2EB8871F4FE071018FF07100C
:1001E0003402001090A31AE700202149086006C8D5
:1001F00081F3088810471F48006800282FD10DA4FC
:100200000ECC002902D000F012F8F9E71A491B4A77
:10021000002000E001C19142FCD1194988471949E9
:1002200088471949884700BEFDE701C901C29A42C3
:10023000FBD3704718FF0710C0000020540C0020AB
:10024000AC0A08100000042000000420AC0A0810CA
:1002500000100420001004200000000070470B482C
:1002600003F004F80047EFF30580C0B270470000C8
:1002700008ED00E0000000D0540C00202C110020FC
:1002800069180010BD0300107119001057560000C6
:1002900006005250ABB36053D4FC07100600525016
:1002A000861C0302E4FC0710060052505422A29D53
:1002B000F0FC071005005250DE65F468AC0A081027
:1002C000F8B5C0460448054B10B5834203D0044B33
:1002D000002B00D0984710BD540C0020540C002077
:1002E0000000000006480749091A8B10C90FC918F9
:1002F00010B5491003D0044B002B00D0984710BD17
:10030000540C0020540C00200000000010B5074CD5
:100310002378002B09D1FFF7D5FF054B002B02D026
:10032000044800E000BF0123237010BD540C0020DE
:1003300000000000904E0010054B10B5002B03D0BC
:100340000449054800E000BFFFF7CCFF10BDC046E0
:1003500000000000580C0020904E0010104AA4230A
:100360004021D1500F4B1B68DB00013B0E4A126845
:1003700093420FD9D2100D4B1B689B5C0C4A12683C
:1003800053401B041B0C0B4A1360074A13680133CC
:10039000136070470023044A1360074A1370F8E79C
:1003A000000005401C0E00200C0E0020180E00203E
:1003B0008400054084100540150E002010B584B05F
:1003C000654B664A1A60664B664A1A6003F0F6FF90
:1003D00003AB02AA01A9644800F032F9002803D156
:1003E0006149624801F0E6FA039A0299019800F027
:1003F000E9F804211C2000F07BF95D4C4023A42285
:10040000A3505C4A13605C49042001F0F7FC012111
:10041000042001F0E3FC0023A3678022A3500432F0
:10042000A35088337632E250683BE3671F3BA367F3
:10043000192000F075F9D024240680239B04636200
:1004400063610E2000F06CF98023DB01636263615D
:100450004A4B1B681B780B2B02D8494A137002E0E9
:10046000474B00221A70464B1B78002B05D13A4AA5
:100470003A4911603A4A3B491160012B18D0022BCE
:100480001DD0032B22D0042B27D0052B2CD03D4B85
:1004900001221A703C4B1B689BB23C4A1360394BDB
:1004A0001B78002B27D00120002100F041FEF6E749
:1004B000294A374911602A4A36491160DFE7264A3E
:1004C00035491160264A35491160DAE7224A344934
:1004D0001160234A33491160D5E71F4A3249116040
:1004E0001F4A32491160D0E71B4B314A1A601C4B3E
:1004F000304A1A60CBE70021042001F06FFC204B4A
:100500001B78042B14D91E4B00221A701C4B1A782E
:10051000294B1A70294B1B78002B0DD0D0231B06BA
:100520008022D2019A610120002100F001FEFAE749
:100530000133134A1370E9E7204B01221A7080211E
:100540001F4C4901206804F093FC802252001A4994
:10055000206804F075FCE1E7180E002008D00110B7
:100560001C0E0020BFAC000080AF0200904E0010B7
:1005700000000540A82005405D030010680300202E
:10058000130E0020150E0020840005408410054045
:10059000C44E001042810100C87C021023B4010047
:1005A000EC30041096460100847705101A3E0100D5
:1005B000A0B50610123A0100200E0020120E0020F5
:1005C0006C030020F0B583B005000C00160000F0AD
:1005D00001F9002801D003B0F0BD164F00973B0091
:1005E00001220121053001F0FDF9F3B2009323004F
:1005F0002A000121104801F01DFB21007143280051
:1006000002F08CFE04000D4B009300220221042016
:1006100001F0E8F90094230000220121052001F0F7
:10062000E1F900973B0002220021062001F0DAF9EF
:10063000D1E7C046006CDC0200800240001BB7001E
:10064000F0B5DE4657464E464546E0B583B0804697
:100650008B4600920193042001F0CAFAFA21890026
:1006600002F05CFE8246A0235B0099462CE0013C30
:10067000002C20D025007D432900300002F04EFEE2
:100680004045F4D12900300002F048FE0029EED1A7
:1006900073019B1B9B009E19F6005B461E60009B2E
:1006A0001F60019B1C60012003B03CBC9046994632
:1006B000A246AB46F0BD013F002F01D03C00D7E77A
:1006C00001235B429C46E1444B460F2B09D9564619
:1006D0004B465E43044BF218044B9A42F0D807276E
:1006E000EAE70020E0E7C04680E5F9FF804F12000E
:1006F00010B58300084A944663441C684022624057
:10070000C02414408022520113431C60C000034BDC
:100710009C466044416010BD04C00140004001405F
:1007200010B501238340D022120693629361052104
:10073000FFF7DEFF10BD0000EFF3108072B6034B31
:100740001B68002BFBD0BFF35F8F70472C0100D0DC
:10075000BFF35F8F024B00221A6080F3108870474E
:100760002C0100D0F8B505000C001600FFF7E4FFDF
:10077000E308EF18EA5C072323401100D940C907BA
:1007800006D4012199400A433A70FFF7E1FFF8BD12
:100790002100300001F00EF900231F2B08D8054A74
:1007A0009A189200BFF35F8F002111600133F4E7C4
:1007B0007047C04640000034054A1078431CDBB245
:1007C0001370172B02D9130010221A707047C046FD
:1007D00070030020034B1B6802201840431E984101
:1007E000C0B2704700C0064070B504000D0006207E
:1007F00001F0FEF9C000290002F090FD0300C609D7
:100800007F20184001304008002E05D00D4B9E423D
:1008100014D83500060000E001256562A6622C347C
:1008200080208001044300232360062001F0E0F9CA
:100830008000A901891902F071FD70BD0026024DEA
:10084000EBE7C046FEFF0000FFFF0000002909D0D3
:100850000A22064B9C466044434258414000044BE8
:10086000C252704780225200F3E7C0460080FCBFAE
:10087000200F002070B505000C00062001F0B8F92B
:10088000002829D0164B9D4227D08022D203154B39
:100890001A60154B1A60154B9B6811009943FAD1E9
:1008A00000212800FFF7D2FF21002800FFF79CFF5E
:1008B0002C002C34E96A60224A406E2111408022CB
:1008C0005201224311600A4B2B6380239B01234377
:1008D00010221A600323AB6470BD80221204D6E795
:1008E0000080034000E0004000F0004000C00040F5
:1008F0000103000040BF00200021704710B500290F
:1009000022D003681B7B99421ED8174B9C4661443A
:10091000090183689C4661440C684968002A19D023
:1009200003681B7B9A4215D883680F48844662444B
:1009300012019A1810685368020001208B4201D8F6
:100940000ED00020C0B210BD084B094A3B21094817
:1009500001F012F8054B064A3B21064801F00CF85D
:10096000A242EFD8EDE7C046FFFFFF0FB4EF07103C
:10097000E8F10710D8EF071010B500291ED0037B4F
:1009800099421BD84B005B18033B0468A4466344A0
:10099000002919D0002A1DD0914221D0002A25D04B
:1009A000047BA24222D80468500080180338201823
:1009B0008170197800291FD11A7010BD104B114A8F
:1009C0004D21114800F0D8FF104B114A53310E4809
:1009D00000F0D2FF0F4B0E4A54210B4800F0CCFF21
:1009E0000D4B0B4A5521084800F0C6FF044B054A41
:1009F0004D21054800F0C0FF41701A70DDE7C04688
:100A000030F0071090F107104CF00710A4F0071019
:100A10009CF10710B0F00710BCF0071070B506008D
:100A20000D001400002914D0002A14D080687368C7
:100A30009847002806D0220029003000FFF79CFFCD
:100A4000280007E02A0021003000FFF795FF200072
:100A500000E0100070BD0800FCE70000F0B5CE46D5
:100A600000B582B00500009201930A9C0BAB1B7885
:100A70009946002C29D00268E3B2517B8B4209D100
:100A80000123002B1BD1002C39D1200002B004BC63
:100A90009146F0BD002B0CD0117B8B4209D8116818
:100AA0005A00D318033BCB189B78002BE9D00123C5
:100AB000E7E73D4B3D4A4D213D4800F05DFF3D4B92
:100AC0003D4A51213D4800F057FF03689C7B002CB4
:100AD000D9D00ED01A7B94420BD862001219033A77
:100AE00019688C46624452789A73002ACBD1DA7323
:100AF000C9E72D4B2D4A4D212D4800F03DFFE7B2AF
:100B0000002F3AD02B681B7B9F4236D82C4BFB180A
:100B10001B01AA6894466344009A1A60019A5A60BD
:100B2000089A9A60099ADA602E68002F2BD030D08C
:100B3000337B9F422DD87B00DB19033B3268944600
:100B4000634400229A705A701A70717B3A00300028
:100B5000FFF764FF7073A04297D1287D009A019B34
:100B600000F0B4FB061E02D04B46002B17D00C9BA6
:100B7000002B00D189E71E7087E7124B124A3B21F8
:100B80000E4800F0F9FE114B114A7721084800F099
:100B9000F3FE054B054A4D21054800F0EDFE28689F
:100BA000390000F0E5FDE2E730F0071090F10710A2
:100BB0004CF00710D4F0071008F20710D8EF071018
:100BC000FFFFFF0FB4EF0710E8F10710F8F0071070
:100BD000B0F10710F0B5DE4657464E464546E0B543
:100BE0008BB0834600239A468200A54BD65849E035
:100BF000A44BA54A3B21A54800F0BEFE002901D127
:100C0000002864D10121280000F0A8FDA04217D1DE
:100C10003A687B6808920993BD68FB689846002D86
:100C200014D0002C18D033681B7B9C4214D8631E50
:100C3000F268D35C9A461B0218433061002015E02D
:100C4000934B944A7821914800F096FE924B914A3A
:100C50007C218E4800F090FE8A4B904A40218B48C0
:100C600000F08AFE00239846002500207368BFF339
:100C70005F8F00221A6089F31088002D30D1002880
:100C800000D1F5E000F0BCFA02000B0000200021CA
:100C9000089009917068EFF3108972B60168002915
:100CA000FCD0BFF35F8F35686C7B002CDAD09FD00F
:100CB000297B8C429CD87A4967183F01B1688C46E1
:100CC000674438687968801A9941002996DD3A6846
:100CD0007B68584600F0FAFA002398460025C5E7DD
:100CE00053461B022343994641461800A8470690E5
:100CF00007917268EFF3108772B6136859424B413F
:100D0000D9B2002BF9D1BFF35F8F079B002B25DBF6
:100D1000079B002B4ADD3369002B4DD04B456CD12E
:100D200000F06EFA02000B000698079980185941EE
:100D30008B4202D804D1824202D901204042C1171D
:100D400000230493013303930294434601930095D7
:100D500002000B003000FFF781FE45E03369002BF5
:100D6000D6D04B451CD1089A099B08929C46069800
:100D70000799121A8B419C4503D805D108999142D5
:100D800002D901225242D31700210491013103916B
:100D900002944146019100953000FFF75FFE23E089
:100DA000404B3C4A8B21394800F0E6FD069A079BF0
:100DB000002B01D1002AAED13368002C39D05A7BE8
:100DC000944220D10121002933D1DA7B002A36D187
:100DD000DC73002C46D033681B7B9C4242D8F268FF
:100DE000013C135D01331355002333617268BFF377
:100DF0005F8F136087F3108844E72A4B254A8E21C2
:100E0000224800F0B9FD002C0DD01A7B94420AD87C
:100E100062001219033A1868844662449278002AE4
:100E2000D1D00121CFE7204B204A4D21204800F0AE
:100E3000A3FD204B204A8F211D4800F09DFD002A74
:100E40000AD0197B8A4207D851008A18033A1968D8
:100E50008C4662445470BBE7134B144A4D2114482E
:100E600000F08AFD074B0D4A4021084800F084FD40
:100E70000BB03CBC90469946A246AB46F0BDC0467E
:100E8000EC0D0020B4EF0710E8F10710D8EF0710C1
:100E9000FCF0071020F2071014F10710F4F107100E
:100EA000FFFFFF0F20F1071030F0071090F107103F
:100EB0004CF007105CF10710BCF1071010B5054BA2
:100EC0001868002800D010BD034B044A352104489F
:100ED00000F052FDDC0D00207CF10710D0F107106E
:100EE000D8EF071070B505000E0000F07DF928005E
:100EF00000F054FA1249280000F0A0F9182003F07D
:100F000007F90400FFF758FC0E4B9C466044800034
:100F1000606022000C49300000F032FB206010219C
:100F2000300003F0F9F8A0600121300003F0F4F87C
:100F3000E0602575AD00054BEC50200070BDC0464B
:100F4000D50B001040000034FD080010EC0D00200F
:100F500010B5064B1B68002B00D010BD10210320DC
:100F6000FFF7C0FF014B1860F7E7C046DC0D00201B
:100F7000F0B5DE4657464E464546E0B589B0804658
:100F800016001F00129B9946139B9A4614AB1B78C0
:100F90009B461F236B4400221A703DE0002B09D0B2
:100FA00042461268127B934204D85A1E4146C968D1
:100FB000895C4EE0364B374A4021374800F0DCFC74
:100FC0000020002A5DD05B46002B5AD05146C8470E
:100FD00004000D0003000B434FD000290CDA32004F
:100FE0003B00361BAF41BB4202D815D1B24213D9E8
:100FF00001267642F7170FE000F002F902000B001D
:10100000A4185D41A94202D804D1A04202D901240A
:101010006442E51726002F0043465A68EFF3108418
:1010200072B61368002BFCD0BFF35F8F1F236B4495
:101030000493002303930293534601934B4600937A
:1010400032003B004046FFF709FDC3B2002BA5D19B
:10105000190042465268BFF35F8F0025156084F384
:101060001088002B0BD01F236B441A78002AA7D1BD
:101070000902FF2318400843A3E7002001E00120F4
:10108000404209B03CBC90469946A246AB46F0BDF2
:10109000B4EF0710F4F10710D8EF0710F0B587B0E0
:1010A00006000F0006246442E517A4197D418D4215
:1010B00002D803D1844201D9002400250494059567
:1010C00000F09EF8241A8D41002D08DC05D0300078
:1010D000390000F0A1F807B0F0BD002CF7D0FFF701
:1010E000EDFE0023029301930F4B0093049A059B9E
:1010F000FFF73EFF002806DAE9E7002300E00023BF
:10110000002BE4D120BF0499059A084B5B6A9A42F0
:10111000F5D80648806A884203D29A42EDD001236E
:10112000EEE70123ECE7C046F5080010004005405B
:1011300070B504000D0000F063F802000B00200001
:101140002900801859418B4202D804D1824202D929
:1011500001204042C117FFF7A1FF70BD70B5EFF34A
:1011600005833F2018401038EFF3108472B6194BF6
:101170001B68002BFBD0BFF35F8F01231900814058
:10118000154A5163154A12781500C5402B4214D0F8
:10119000114B5D6A8300124E9B599D4206D383001A
:1011A000104D5B598A430D490A7007E00A4A031D36
:1011B0009B0099589950002300E00023BFF35F8FF4
:1011C000044A0021116084F31088002B00D0984756
:1011D00070BDC046280100D000400540160E00201A
:1011E000FC0D0020A40C002010B50100024A0348A9
:1011F000FFF7B8FA10BDC0463CF20710110E0020F0
:10120000044B5B6A034A906A1900536A9942F9D108
:101210007047C04600400540074B5B6A8B4204D2D2
:10122000054B5B6AFAE7044B5B6A8B4203D1024BC6
:101230009B6A8342F7D370470040054070B50400B5
:101240000D00EFF3108672B61B4B1B68002BFBD012
:10125000BFF35F8F002D1CD0200000F0C7FD174B9F
:1012600083420BD01900200000F0C8FD01212000AE
:1012700000F0B4FD0123A340114A1360A400114BF8
:10128000E550BFF35F8F0C4B00221A6086F3108885
:1012900070BDA2000B4B0021D1500122A2400A498F
:1012A0000B7893430B700549200000F0D1FD00211D
:1012B000200000F093FDE4E7280100D05D1100104C
:1012C00038600540A40C0020160E0020F0B5DE4664
:1012D00000B584B00400150001921E000293FFF7D0
:1012E0008FFF03958E4202D844D1854242D9EFF355
:1012F000108B72B6224B1B68002BFBD0BFF35F8FA5
:101300000125A5401F4B5D63EFB21F490A783A43A0
:101310000A70221D92000199D150A4001B4A029923
:10132000A1501B6A2B4212D1164B1B6C2B4208D0CA
:101330000020BFF35F8F124B00221A608BF31088DE
:1013400019E0134B134AB221134800F015FBFFF7C5
:1013500057FF8E420CD802D1039B834208D8094B19
:101360001D625D63084A1378BB4313700120E0E7F8
:101370000020DEE7012004B004BC9346F0BDC04667
:10138000280100D000400540160E0020FC0D002072
:1013900060F20710D4F2071084F2071010B5EFF3D3
:1013A000108472B60A4B1B68002BFBD0BFF35F8F13
:1013B00001238340074A136207490A789A430A7057
:1013C000BFF35F8F024B00221A6084F3108810BDB8
:1013D000280100D000400540160E002010B51F293E
:1013E00005D8064B9C4661448900016010BD044B42
:1013F000044A0A21044800F0BFFAC0464000003405
:10140000F0F2071068F307101CF3071010B5040082
:10141000FFF7D2F901002000FFF7E0FFFF2323715F
:10142000BFF35F8F10BD000010B500291ED0037BF5
:1014300099421BD84B005B18033B0468A4466344E5
:10144000002919D0002A1DD0914221D0002A25D090
:10145000047BA24222D80468500080180338201868
:101460008170197800291FD11A7010BD104B114AD4
:101470004D21114800F080FA104B114A53310E48AB
:1014800000F07AFA0F4B0E4A54210B4800F074FA20
:101490000D4B0B4A5521084800F06EFA044B054AE3
:1014A0004D21054800F068FA41701A70DDE7C0462A
:1014B00030F00710C8F407104CF00710A4F0071024
:1014C000D4F40710B0F00710BCF0071070B5060098
:1014D0000D001400002914D0002A14D0806873680D
:1014E0009847002806D0220029003000FFF79CFF13
:1014F000280007E02A0021003000FFF795FF2000B8
:1015000000E0100070BD0800FCE7000010B50023EB
:10151000437301338373037BC3730121037B8B42CA
:1015200015D9CBB2002B0CD0027B934209D85A00BC
:10153000D218033A0468A44662440133537001315F
:10154000ECE70C4B0C4A4D210C4800F015FA002B2F
:1015500009D09B4207D801685A00D318033BCB1827
:1015600000225A7010BD034B034A4D21034800F07E
:1015700003FAC04630F00710C8F407104CF007100B
:10158000F8B505000F0016001021012002F0C4FD7F
:101590000400057347600321280002F0BDFD2060B0
:1015A000A6602000FFF7B2FF2000F8BD70B5040070
:1015B000081E00D170BD002934D0237B994231D858
:1015C0004B005B18033B2268944663445A78002A18
:1015D000F0D02DD0237B9A422AD853009B18033B8E
:1015E00021688C4663445D7800215970002825D01D
:1015F000237B984222D843001B18033B21688C466A
:1016000063440021597001002000FFF75FFF0600CE
:1016100029002000FFF7CAFF020031002000FFF779
:1016200055FFC7E7084B094A4D21094800F0A4F9C6
:10163000054B064A4D21064800F09EF9024B034A2D
:101640004D21034800F098F930F00710C8F4071056
:101650004CF0071070B505000C001600002928D0CA
:101660002DD0037B99422AD84B005B18033B0268BC
:10167000944663445A78002A27D19A78002A2AD1BE
:101680001978FFF793FF0300002E03D1EA7B002AAD
:1016900027D1EC73002B37D1002C49D02B7B9C42F7
:1016A00046D82B6861000C19033C1C190023637099
:1016B00070BD224B224A3321224800F05DF9224BB3
:1016C000224A4D21224800F057F9224B1C4A35216D
:1016D0001C4800F051F9204B194A3621194800F0F6
:1016E0004BF9002A0AD0297B8A4207D851008A1870
:1016F000033A29688C4662445470CAE7124B134A75
:101700004D21134800F038F9002B0BD02A7B93426F
:1017100008D843001B18033B2A6894466344002200
:101720009A70B9E7084B094A4D21094800F024F99D
:10173000054B064A4D21064800F01EF904F4071037
:10174000E8F407100CF4071030F00710C8F4071085
:101750004CF0071054F407107CF4071070B5040027
:101760000A00457B2900FFF775FF6073280070BDF4
:1017700070B50400002966D0437B8B420ED000294F
:1017800011D0037B99420ED84B005B18033B0268D3
:10179000D0188378002B0CD1002055E00021FFF7F2
:1017A000DDFF012050E0294B294A4D21294800F056
:1017B000E3F8002B1FD0227B93421CD825685A00E7
:1017C000D318033BEA18EB5C8B421AD0002B1BD0DA
:1017D000227B934218D85A00D318033B2268D218B0
:1017E00053788B4216D0002BF0D11B4B1B4A632140
:1017F0001B4800F0C1F8154B154A4D21154800F063
:10180000BBF84378137007E0104B114A4D21114883
:1018100000F0B2F8437853700023837043700022C5
:101820002000FFF717FF0200617B814205D02000F6
:10183000FFF74CFE6073012006E00A4B074A69215E
:10184000074800F099F8002070BDC04630F007103E
:10185000C8F407104CF00710A0F40710FCF40710B0
:101860000CF40710A8F4071070B5234B234A1A6034
:10187000234B244A1A60244B9A68224B9343FAD193
:10188000224C234B9C4202D208CC9847F9E700F047
:101890001DF91B4B1F4A1A601B4B9B68DB43DB0186
:1018A000FAD11D4B40229A675A671A67DA661B4CB9
:1018B00003E02000FFF7AAFD0834194B9C42F8D33F
:1018C000184CA168184DC022280002F037FCA56012
:1018D000EFF30383FF221A4200D000BEFEF75CFF45
:1018E00000F020FCFFF734FB104C01E008CC9847D7
:1018F0000F4B9C42FAD370BD00E00040BFCDFFFF0C
:1019000000F00040FE7F3C0000C00040400C002082
:10191000500C0020FFFFFF0100F00140380C0020B8
:10192000400C002000ED00E000000020500C0020E2
:10193000540C002000BEFDE703000A4A1268002A8A
:1019400008D0084A1068C318074A934206D2054ACD
:1019500013607047034A05491160F2E701204042D5
:10196000F7E7C046E80D0020000004202C110020FD
:1019700010B5FFF7DFFF000010B582B00C001900B2
:10198000002A0CD0084B002A0BD0019200932300B0
:101990000200064802F006FD0120FFF7CBFF044BD2
:1019A000F1E7034AF1E7C04608F5071018F50710FC
:1019B00014F507100FB400B583B0084802F0C2FC5C
:1019C000049B002B07D005A90191180002F0C8FC68
:1019D000034802F0B7FC0120FFF7ACFF48F5071001
:1019E00058F50710F8B5D646474680B506000D00F5
:1019F0001700089A934243D3190E1802089A00233D
:101A000001F0D2FC80467400A419A4002A4B9C4625
:101A100064446368834200D26060331FDBB29A463D
:101A2000012B33D9C0239B012343802212011A606A
:101A3000B300224A9958002905D0506901F06EFC84
:101A400001300138FDD17F0122685740E022174064
:101A500080235B0123431F605246012A21D9802342
:101A60009B012343802212011A6043466360B60043
:101A7000124B089AF25001200CBC90469A46F8BDD1
:101A80000F4B104A2E211048FFF776FF012DC9D1C8
:101A9000C0239B01234303221A60A368DB07FCD504
:101AA000D1E72168694003220A401A60A268012335
:101AB000AB401342FAD0D2E700800040B40D0020C2
:101AC0005CF50710C4F5071070F5071030B583B04A
:101AD0000C2000F093F8FEF77DFE00280DD00023C7
:101AE000092B05D89900334A334888500133F7E76A
:101AF000304B324A5A6203B030BD314B00229A67F4
:101B000000F084F82F4B01221A602D4B5B6C012BE7
:101B1000FBD12D4B03221A60294B9B6B012BFBD170
:101B2000C0239B01294A1360294A1360294B9A68F4
:101B3000C0239B019343F9D1022400940633264A23
:101B40000121264800F076F800940523244A01215B
:101B5000244800F06FF8244B009300220221042057
:101B6000FFF740FF214D00952B00002201210520A9
:101B7000FFF738FF104C00942300002200210720BB
:101B8000FFF730FF00942300002200210820FFF718
:101B900029FF0A4B00932300002200210920FFF7B0
:101BA00021FF00952B00002200210620FFF71AFFDD
:101BB000A1E7C046B40D0020006CDC021BB700009A
:101BC000008000403CB0004030B0004000E00040E9
:101BD00000F0004000C00040002F68590080024023
:101BE00000389C1C00C00240001BB700405973071E
:101BF0008000014BC0587047B40D002080239B002B
:101C00000343014AD362704700800540064BAA2275
:101C100012011A602F22DA60044B054A1A60024B47
:101C20005B68002BFBDA7047004002400060024016
:101C300000B0FA00F8B5CE46474680B504008946A4
:101C400090461D0008AB1F7801235B4243600023D0
:101C500083600C2001F062FB06004B4623604301C9
:101C60001B1A9901C91AC90009188901404601F0D7
:101C700055FB0200103A98235B009A4220D86B1E55
:101C8000062B23D87B1EDBB2062B1FD8AF4223D8EE
:101C900043461A09B24225D3A060221DC0239B01EE
:101CA000134321221A602268002AFCDA2D043F0324
:101CB0002F43E76008221A600CBC90469946F8BD95
:101CC0000B4B0C4A1A210C48FFF756FE0B4B094AE6
:101CD0001D210948FFF750FE094B064A23210648FB
:101CE000FFF74AFE074B034A27210348FFF744FE4C
:101CF000D4F50710BCF60710F0F507103CF60710F6
:101D000088F60710A0F60710074B9B68103080007C
:101D10001950BFF35F8FBFF35F8F044B0021196031
:101D200082F310887047C04600ED00E0240100D027
:101D300010B5091A04394808090B05D14005400DB2
:101D4000044B184380B210BD034B044A8D21044854
:101D5000FFF712FE00E0FFFFC8F60710B4F8071007
:101D6000D8F6071010B5091A04394C08090B08D128
:101D70004905490D064A11430180064B2343438020
:101D800010BD054B054A95210548FFF7F5FDC046F6
:101D900000F0FFFF00F8FFFFC8F60710C0F80710BB
:101DA000D8F6071001238340034A10681840431EE9
:101DB0009841C0B27047C04600E100E0002904D05D
:101DC000034B1860034B18607047034B1860FBE728
:101DD00080E200E000E100E080E100E010B50123D6
:101DE00083401800FFF7EAFF10BD0000024B9B681C
:101DF00010308000C058704700ED00E070B504005E
:101E00000D00EFF3108672B60C4B1B68002BFBD055
:101E1000BFF35F8F2000FFF7E9FF094B984201D025
:101E2000A84205D1320029002000FFF76DFF70BDE8
:101E3000044B054A71210548FFF79EFD240100D09F
:101E4000CD01001024F7071098F80710D8F60710F6
:101E5000F0B5CE46474680B583B006000D00EFF3DF
:101E6000108872B65A4B1B68002BFBD0BFF35F8FF4
:101E7000584B9A6834001034A300D758564B9F42F1
:101E800007D0AF4200D1A0E00197544BFB1A2F2B93
:101E900009D9424639003000FFF736FF03B00CBCC9
:101EA00090469946F0BD3000FFF77CFF8146002147
:101EB0003000FFF793FFBFF35F8FFEF7D4F90028E0
:101EC00001D084421ED10123019C9C43434AA21AA3
:101ED000921093009B1819015B1819025B181904E2
:101EE0005918490089180022A368AB4212D0062273
:101EF000A256002A0DDB53009B189B002200374C92
:101F0000E418F1E78E21364B364A49003648FFF790
:101F100033FD2200AB4251D106256557002D39DB38
:101F20006B005B199A002D4B9B189A68A260DA79B6
:101F3000E27106229A56A2719B795BB2002B10DAED
:101F4000BD200002A0806B005B199B00234AD318C0
:101F5000264A11789971157049463000FFF73EFF07
:101F600097E7201D6B005B199B001C4A9B181A1DEC
:101F70009B88D90A1C2907D1590549150231490006
:101F80005118FFF7D5FEDDE7194B1A4A9B21164879
:101F9000FFF7F2FC00280CD1002A08D0FF23937130
:101FA000154B9380114B1A78A2711970D4E70A4F20
:101FB000F8E7201D1149FFF7D5FECDE75221104B60
:101FC000084AFF310848FFF7D7FC034F61E7C046D6
:101FD000240100D000ED00E0CD01001074030020CA
:101FE00038F80710E8F80710D8F60710140E00208C
:101FF00020F80710D8F8071000BDFFFFAE0300203F
:102000005CF8071010B5032304009C43064A94466D
:10201000644422681840C000FC3383409A43130094
:1020200081400B43236010BD00E400E0F8B50400DC
:1020300001250543304BEB1A2F2B2DD8FEF713F952
:10204000002830D0EFF3108172B62C4B1B68002BA8
:10205000FBD0BFF35F8F284EA61BB610B2009219BB
:102060001301D2181302D2181304D3185B009B1962
:10207000234A926880001258AA421BD000200328ED
:1020800032D84200121892001B4DAA18927952B20F
:102090009A421FD00130F2E7B7211A4B1A4A490081
:1020A0001A48FFF769FC7221194B174AFF3117488C
:1020B000FFF762FC124A9268164D1550164A1078C6
:1020C000A0711370BFF35F8F0C4B00221A6081F375
:1020D0001088F8BD2E0042001518AD007519FF27B5
:1020E000AF710E48A880E9E7C1210D4B064A4900AF
:1020F0000648FFF741FCC04674030020240100D0CD
:1021000000ED00E064F80710FCF80710D8F607109F
:102110008CF80710CD010010140E002000BDFFFF49
:10212000A0F4071010B500241F2C05D88021200032
:10213000FFF768FF0134F7E710BD704710B50028BE
:1021400002D00B684968984710BD010000200A685A
:102150001378303BDBB2092B08D883001B185B00D7
:10216000501C08601078C0183038F0E77047F0B5A0
:10217000DE4657464E464546E0B583B093461F00BF
:102180000C9B9A460D9C0E9B99460F9B9B0703D078
:10219000B8460F00060022E00192A34688464E464C
:1021A000B9460700B44207D2551C4B464146202091
:1021B000B84701342A00F5E73D004F465C46019BD5
:1021C0009B46B1464646B84637002E0007E0013C24
:1021D000551C5346185D43463900B0472A00002C71
:1021E000F5D135003E0047460F9B9B0707D41000F2
:1021F00003B03CBC90469946A246AB46F0BDB04603
:102200004E46B9462F005D46531BB342EFD2541CD5
:102210004B4641462020B8472200F5E7F0B5CE46B0
:10222000474680B585B0944698460C9D0D9C0EABF4
:102230001B789946109A119B129EB7071BD4002B4E
:1022400008D0F70706D54F46002F02D10C3737428A
:1022500000D0013B944208D21F2C06D830272F55BE
:102260000134F7E730272F550134F70703D59C4297
:1022700001D21F2CF6D9F70615D5770505D4002C09
:1022800003D0944224D09C4222D00F9A102A2BD003
:102290000F9A102A30D00F9A022A35D01F2C02D85C
:1022A00030222A5501341F2C05D84A46002A31D045
:1022B0002D222A550134039602930194009543463A
:1022C0006246FFF754FF05B00CBC90469946F0BD3E
:1022D000621E012C06D00F9F102F01D01400D4E7EE
:1022E000023CD2E71400D0E7B206D1D41F2CCFD8DD
:1022F00078222A550134D1E7B206CCD51F2CCAD892
:1023000058222A550134C9E71F2CC7D860322A55F4
:102310000134C3E7720703D52B222A550134CAE7DB
:102320003207C8D520222A550134C4E7F0B5DE466D
:1023300057464E464546E0B593B081468A460892D8
:1023400009931CAB10CB1B789B461E9D219B984686
:10235000002C03D1102342469A4390468023DB0091
:1023600046461E4042461A4212D0002C22D0002679
:102370000EE03033D9B2771C0AAB99552900200002
:1023800000F0CCFFAC4216D31F2F14D83E0004003F
:102390002900200000F0C2FFCBB2092BE9D9424648
:1023A000920605D54121C918C9B20A39C9B2E2E776
:1023B0006121F8E7270043460693209B05931F9B66
:1023C000049303955B46029301970AAB0093099B24
:1023D000089A51464846FFF721FF13B03CBC90468F
:1023E0009946A246AB46F0BDF0B5DE4657464E468E
:1023F0004546E0B595B0089009910A920B931E9E50
:102400001F9C20AB1B789B46229B9946239D269BB5
:102410009A463300234303D1103352469A439246DF
:102420008023DB0057461F4052461A4219D0330022
:1024300023432DD0002714E03033DAB27B1C9846BA
:102440000CABDA554A462B003000210000F0ACFFFF
:10245000A5421FD819D043461F2B1BD8474606005C
:102460000C004A462B003000210000F09DFFD3B243
:10247000092BE1D95246920605D54122D218D2B293
:102480000A3AD2B2DAE76122F8E7B145E3D901E0CE
:102490000023984653460693259B0593249B04935B
:1024A0004B4603935B460293434601930CAB009368
:1024B0000B9B0A9A09990898FFF7B0FE15B03CBC2F
:1024C00090469946A246AB46F0BD0000F0B5DE4608
:1024D00057464E464546E0B591B0824689460E9233
:1024E00098461A9C07941B9D089522002B002000FB
:1024F000290001F0D0F9002800D007E10122524262
:10250000D54B2000290001F0C1F9002800D0FDE0E2
:1025100001225242D14B2000290001F0A1F90028EC
:1025200000D0F3E000220023079C2000089D290032
:1025300001F096F9002800D0FFE0079A089B099265
:1025400006938023DB001E9A1A400F921E9A1A42AD
:1025500001D106231C93099B069A100D4005400DDE
:10256000BF498C4660441203120B1E00BD4B13433F
:102570001F0001F0A3F9BC4ABC4B01F02FF9BC4A83
:10258000BC4B01F019F904000D000022BA4B3000D9
:10259000390001F008F9B94AB94B01F01FF90200FE
:1025A0000B002000290001F007F901F09FF9834694
:1025B00001F084F904000D00B24AB34B01F00EF9AA
:1025C0000022B24B01F0F8F801F090F90600B04A91
:1025D000B04B2000290001F001F904000D000A961B
:1025E000300001F06BF9AC4AAC4B01F0F7F8020097
:1025F0000B002000290001F0D6F804000D000200B5
:102600000B0001F0EBF806000F000A99A44B9C4662
:10261000614409050B9100210A9122002B00200042
:10262000290001F0C9F80C900D9122002B00002028
:102630008021C90501F0B7F804000D000022994B74
:102640003000390001F0C1F80022974B01F0B4F8D6
:1026500002000B003000390001F0B7F80022934B64
:1026600001F0AAF802000B003000390001F0ADF8CB
:1026700002000B002000290001F09EF802000B0070
:102680000C980D9901F0A1F80022764B01F094F816
:102690000A9A0B9B01F0A2F804000D000A940B9516
:1026A000099A069B01F0F2F800280BD001235B4247
:1026B0009C46E34400227C4B2000290001F085F871
:1026C0000A900B915B466333C62B3DD804241E9BB6
:1026D0001B0545D5764A774B099E3000069D29009B
:1026E00001F0CCF8002800D19EE00022724B3000AF
:1026F000290001F0B5F8002800D195E01C9B5B454E
:1027000024DD5A46981A431E1C9321E01E9B049315
:102710001D9B03931C9B0293079A089B00920193B5
:1027200043460E9A4946504600F0CAF811B03CBCE8
:1027300090469946A246AB46F0BD099480231B06FD
:102740009C4665440695FCE60524C0E700231C93DF
:102750008023DB001E9A1A431E92002400239B460E
:102760001D9B9C426AD21D1B02231E9E1E401E9A68
:10277000134202D0002C00D000255B46002B07D06E
:102780000A9A0B9B0998069901F01FF80990069187
:10279000002200230798089901F062F800284FD121
:1027A000464B1E9A1340049303951C9B0293099A6F
:1027B000069B0092019343460E9A4946504600F00C
:1027C0007FF8002CB2D01E9B9B0640D54527451CA8
:1027D0004346020049463800D0475B46DA179B184B
:1027E000534005220592013C0494002203920A32D0
:1027F00002925A46D00F0190009343462A00494660
:102800005046FFF793FD002E00D18FE70200574698
:102810000E9E1D9D931BAB421BD2541C4346494642
:102820002020B8472200F5E71C9B002B98D00F9B77
:10283000002B95D01C9B013B1C9391E7002593E74F
:10284000069980200006844661440691A8E7652722
:10285000BDE710006AE7C046FFFFEF7FFFFFEFFF15
:1028600001FCFFFF0000F03FFB799F501344D33F72
:10287000B3C8608B288AC63F0000F83F61436F638E
:10288000A787D23F71A379094F930A400000E03F28
:102890001655B5BBB16B0240EF39FAFE422EE63F4A
:1028A000FF03000000002C400000244000001840FE
:1028B0002D431CEBE2361A3F80842E41FFF7FFFFC9
:1028C000F0B5DE4657464E464546E0B595B0069013
:1028D000079193469946209F1E9A1F9B100019004E
:1028E00000F0D9FF002831D101225242BF4B1E987F
:1028F0001F9900F0B5FF002837D101225242BC4B8E
:102900001E981F9900F0C2FF00283DD10022B94B4C
:102910001E981F9900F0BAFF002850D10022B64B34
:102920001E981F9900F09CFF002848D10022002328
:102930001E981F9900F094FF002850D1002398465C
:10294000229B5B0500D4B6E0002458E0229B039351
:10295000219B029303230193A84B00934B465A46B5
:1029600007990698FFF703FC0EE1229B0393219B36
:10297000029304230193A24B00934B465A460799B6
:102980000698FFF7F4FBFFE00423229A1A402299ED
:102990000B4210D09B4B002A0FD0042222990391A6
:1029A00021990291019200934B465A460799069845
:1029B000FFF7DDFBE8E0944BEDE70322EEE7229B17
:1029C0000493219B039302971E9B1F9C00930194E9
:1029D0004B465A4607990698FFF778FDD4E01E9AB1
:1029E0001F9B0020002100F0DEFE1E901F9101239E
:1029F0009846A5E70CAB30221A55013F01341F2C35
:102A000001D8092FF6D81E981F9900F06FFF050016
:102A100000F054FF02000B001E981F9900F0C3FE47
:102A2000FA007A4B9B181A685B680A920B9300F0C5
:102A3000D5FE0890099100F07DFF060000F03AFFF6
:102A400002000B000898099900F0ADFE089009916A
:102A500000226F4B00F01AFF00282ED00136300004
:102A600000F028FF02000B000A980B9900F0FEFE10
:102A7000002801D001350026002F2CD1280000F0BD
:102A80001DFF02000B001E981F9900F08CFE06002F
:102A90000F0000225E4B00F0E3FE002842D100222E
:102AA0005B4B3000390000F0F1FE00283AD1EB0713
:102AB00038D5013536E0062746E70022544B089802
:102AC000099900F0CDFE0028D6D1002E01D0F307E1
:102AD000D2D50136D0E7AA461F2C11D8013F0A21D2
:102AE000300000F01BFC651C30310CAB19550A217D
:102AF000300000F013FC092E26D906002C00EBE76D
:102B0000554604E00CAA302111551F0001341F2C3A
:102B100002D87B1E002FF5D11F2C03D80CAB2E2220
:102B20001A5501341F2C14D80A21280000F0CAFBC2
:102B3000661C30310CAB19550A21280000F0C2FB8D
:102B4000051E05D03400EDE72B0055461C00DEE7DE
:102B500034000323229A1340012B1CD01F2C06D8CB
:102B60004346002B32D00CAB2D221A550134229B48
:102B70000393219B029301940CAB00934B465A465E
:102B800007990698FFF7F3FA15B03CBC90469946B2
:102B9000A246AB46F0BD219B002B13D04346002B31
:102BA00002D10C3313420FD0219B013B219319001A
:102BB00003E00CAB30221A5501348C42CED21F2CCC
:102BC000F7D9CBE72199F8E72199F6E7229B5B0734
:102BD00004D50CAB2B221A550134C8E7229B1B07E6
:102BE000C5D50CAB20221A550134C0E7FFFFEFFF1B
:102BF000FFFFEF7F65CDCD4165CDCDC124F9071035
:102C000028F907101CF9071018F9071010FB071016
:102C10000000E03FF0B5DE4657464E464546E0B57B
:102C200093B082468B4690461193002900D1ECE286
:102C300000275546119B1878002800D1E8E2252886
:102C400009D07C1C43463A005946A847119B0133E2
:102C500011932700EEE70133119300241DE00B00D0
:102C6000303BDBB2092B37D92A293AD000230A930B
:102C7000119B1A782E2A44D000239A46119A137871
:102C8000683BD9B2122900D980E08B00CB49CB58E0
:102C90009F4601231C4301321192119A11780B00B7
:102CA000203BD8B21028DAD88300C548C3589F46C5
:102CB00002231C4301321192EFE704231C4301322B
:102CC0001192EAE708231C4301321192E5E7102331
:102CD0001C4301321192E0E711A8FFF736FA0A907F
:102CE000C6E71C9B1A1D1C921868002804DB0A907A
:102CF000119B01331193BBE702231C4343420A9308
:102D0000F6E78022D20014435A1C11925A7813001D
:102D1000303BDBB2092B04D92A2A07D000239A467C
:102D2000ACE711A8FFF711FA8246A7E71C9B1A1D12
:102D30001C921868002804DB8246119B0133119312
:102D40009CE70020F8E780235B002343511C11918E
:102D500052786C2A01D01C0018E0C0239B001C4351
:102D60000131119112E080232343511C11915278BB
:102D7000682A01D01C0009E0C0231C4301311191D5
:102D800004E080235B001C4301321192119B1878F0
:102D90000300253BDAB2532A00D92CE29300894A7A
:102DA000D3589F4680239B001C4301321192EDE7CC
:102DB00080235B001C4301321192E7E7782809D099
:102DC000582838D06F2838D0622838D010239C4338
:102DD0000A2600E01026582833D0692803D064283A
:102DE00001D00C229443630501D501229443692844
:102DF0002AD0642828D0A30500D59FE0E30500D59C
:102E0000B8E0630600D4CAE01C9A111D1C91116839
:102E1000FF220A4005940A9B0493534603930296AB
:102E200000230193009243463A0059462800FFF7D9
:102E30007DFA070027E01026CDE70826CBE702261B
:102E4000C9E720221443C8E7A30520D4E30550D4E2
:102E5000630666D51C9A111D1C911168FF220A4059
:102E6000D317D118594005940A9B049353460393F2
:102E70000296D20F0192009143463A00594628002B
:102E8000FFF754FA0700119B01331193D2E61C9B04
:102E9000DA1D07218A43110008311C91116853681B
:102EA0009C46DB170C930D930C9A0D9B1000484029
:102EB0000E90624653400F930E980F990C9A0D9BFB
:102EC000801A99410E900F9108940A9B07935346DC
:102ED00006930496002305936346DA0F029200904E
:102EE000019143463A0059462800FFF77DFA070052
:102EF000C9E71C9A111D1C911268D317D1185940AB
:102F000005940A9B0493534603930296D20F0192B1
:102F1000009143463A0059462800FFF707FA070098
:102F2000B1E7230605D51C9A111D1C910023D25E22
:102F300096E71C9A111D1C91126891E71C9BDA1DE3
:102F400007218A43110008311C9108940A9B0793BA
:102F5000534606930496002305930293136854681E
:102F60000093019443463A0059462800FFF73CFA83
:102F7000070088E71C9A111D1C9105940A9B049375
:102F8000534603930296002301931368009343462C
:102F90003A0059462800FFF7C9F9070073E72306EE
:102FA00006D51C9A111D1C9112681204120C31E7EF
:102FB0001C9A111D1C9112682CE7C04630F90710AD
:102FC0007CF90710C0F9071046281AD01C9B07335C
:102FD000072293431A0008321C9204940A9A03921F
:102FE000524602925C681B680093019443463A0083
:102FF00059462800FFF764FC0700119B0133119329
:1030000018E620231C43E1E7672801D0472802D1B6
:1030100080231B011C43452801D0472801D12023D0
:103020001C431C9B0733072293431A0008321C924F
:1030300004940A9A0392524602925C681B680093B9
:10304000019443463A0059462800FFF73FFA07002B
:10305000119B01331193EDE502231A0022409246A1
:1030600023421FD001241C9B1A1D1C927A1C9146DE
:10307000187843463A005946A8475346002B16D1C4
:10308000119B013311934F46D4E5561C43465946D4
:103090002020B847230032005C1C9D42F5D83D003B
:1030A0001700E0E701233A002F000A9DF4E74A46A3
:1030B000A9460A9D06E0571C434659462020C847AA
:1030C00034003A00661CA542F5D84D469146D7E734
:1030D0001C9B1A1D1C921B6899465346002B00D15D
:1030E000013B4E4601E0013613003278002A02D03F
:1030F0005A1E002BF7D14B46F21A10928023DB00A8
:1031000026001E401C4203D0524501D9534610935D
:1031100002231A0022400B92234205D03A003700C6
:103120004C46A946554620E03A00109B5F46B34600
:103130002E0006E0551C434639002020B0472300EE
:103140002A005C1C0A999942F4D835005E46BB46B9
:10315000109437004C46A946554606E01D00013440
:10316000561C43465946C84732002078002804D0F0
:10317000002FF4D06B1E002DF0D117004D460B9B95
:10318000002B03D1119B0133119353E50A9F109B30
:1031900006E0561C434659462020A847230032002B
:1031A0005C1C9F42F5D81700ECE721231C431C9BB5
:1031B0001A1D1C921B680093059408230493534620
:1031C0000393102302930023019343463A00594688
:1031D0002800FFF7ABF80700119B0133119329E595
:1031E0007C1C43463A0059462520A847119B0133D1
:1031F000119327001EE57C1C43463A005946A84718
:10320000119B01331193270014E50B4B9A460FE5F0
:10321000AA4647450DD343465A1E43465946002009
:10322000D047380013B03CBC90469946A246AB4606
:10323000F0BD3A00F1E7C0463B21001000B585B073
:10324000029003910121009313004A4202A902480F
:10325000FFF7E0FC05B000BD3D210010014804214E
:10326000014B1847C00300208D32001010B501003B
:1032700018231B8814221088984710BD10B5010030
:1032800018231B8816221088984710BDF0B5C64633
:1032900000B507000E0000250123984600E0013527
:1032A000B5420AD2AC003C192068FFF7DFFF20606E
:1032B0000028F4D100239846F1E7404604BC90462C
:1032C000F0BD0000144A936F9B0815D29066D1663A
:1032D000002905D0FFE7FFE7FFE7516F106F704748
:1032E00004B580210906C2175140002800D0C84308
:1032F00001F0AEFD002104BD936F5B08FDD3F0B576
:10330000946ED56E576F166FFFF7E0FF9466D56623
:1033100057671667F0BD0000000000D0134A936F96
:103320009B0813D210665166002905D0FFE7FFE71E
:10333000FFE7516F106F704704B5002801D00020DF
:10334000C04301F085FD002104BDC046936F5B08BA
:10335000FDD3F0B5946ED56E576F166FFFF7E2FF91
:103360009466D56657671667F0BD0000000000D070
:1033700094464E4A926F9208624601D230E0C046AF
:10338000F0B54A4EB56F6D08FCD3346E756E776F2D
:10339000366F00F025F89446444A14665566576720
:1033A00016676246F0BDC0469446404A926F920846
:1033B000624601D258E0C046F0B53C4EB56F6D088C
:1033C000FCD3346E756E776F366F00F04DF894460F
:1033D000364A14665566576716676246F0BDC046A2
:1033E000002B24DB11D000293EDA00B5C94340424E
:1033F00000D1013100F038F8C943404200D1013119
:10340000DB43524200D1013300BD002AEBD100283A
:1034100001D1002905D00020C90FC90701D1C0433F
:10342000410800B501F004FD0022002300BD00B5F5
:1034300000290ADBDB43524200D1013300F014F8CB
:10344000C943404200D1013100BDC943404200D1CF
:103450000131DB43524200D1013300F005F8DB4378
:10346000524200D1013300BD002923D1002B18D1D5
:10347000002A0CD0BC460D4F38667A660021002326
:10348000FFE7FFE7FFE77A6F386F6746704700286E
:1034900001D00748010000B501F0CAFC002200235A
:1034A00000BD02000B00002000217047000000D08A
:1034B000FFFFFFFF002B00D0BDE0130C26D1002A38
:1034C000E7D080B4104F39667A66FFE7FFE730B483
:1034D000040C7B6F396F1B0423433B66FFE7FFE758
:1034E000FFE7C04684B27B6F3D6F1B0423433B66FE
:1034F000FFE7FFE7C04600232C042D0C7A6F386FDE
:1035000000196941B0BC7047000000D0F0B5944686
:103510000025140E01D112020835140F01D1120139
:103520000435940F01D192000235D40F01D152001D
:103530000135D40B0134254F7C66254C3C660E0CBE
:1035400093B2FFE7FFE7FFE73C6F6643360C770374
:10355000BE467343DF0B5B04C01AB941130C7343BF
:10356000DB18C91ACE086643360CB64493B27343CF
:103570001F0F1B01C01AB941130C73431F0B1B050E
:10358000C01AB941860D8F023E436643360C092DA1
:1035900024DB520A7243801A7703460A6643360CCC
:1035A00016235B1BDE40DF40BF1964466643821B67
:1035B0007046043506330100D940A840C01900D335
:1035C0000131A24206D20023F0BD0000000000D06D
:1035D000FFFFFFFF121B0130F3D3F1E709277F1B29
:1035E000FE406446A2B27243801A00D20139220C16
:1035F0007243130C1204821A99410B007046043571
:1036000013370100F940A840801900D30131002B85
:1036100002D1A2420AD2F0BD013000D30131121B07
:10362000FAD2013BF8D1A24200D2F0BD013000D362
:103630000131121BF7E7F0B51C0C00D080E00CB490
:1036400000251C0A04D11B02160E33431202083552
:103650001C0B04D11B01160F3343120104359C0BC4
:1036600004D19B00960F334392000235DC0B02D14C
:1036700092185B4101351C00971864410134464F94
:103680007C66464C3C660E0CFFE7FFE7FFE7C04652
:103690003C6F6643360C7703BE4697B27743C01B38
:1036A00000D20139C01B00D201399FB27743C91B38
:1036B000C91B170C77437E04FF0B801BB941CE0852
:1036C0006643360C0C2D33DBB644120B1F053A4310
:1036D0001B0B97B27743C01B00D201399FB27743CF
:1036E000C91B170C77433E043F0C801BB941860D64
:1036F0008F023E43664329277F1BFE400C3D7746E1
:10370000AF40BF1930BCA2B2ABB272437343801A50
:103710009941220C7243130C1204801A9941020041
:103720000B000137001BA941F9D2781E0021F0BD22
:103730000C277F1BFE4077467F0BAF40FF19E0E769
:1037400000245D1C07D0144F7D663966FFE7FFE754
:10375000FFE7FFE73C6F95B29EB265436643401BAF
:10376000B141150C1E0C6543664336042F0C3E43D5
:103770002D04401BB141994204D202000B002000ED
:103780000021F0BD01D19042F7D3801A9941013454
:103790009942F2D3F6E70000000000D0FFFFFFFFE0
:1037A00048404140484018B4114B5B68FC460193C7
:1037B00008BD04DF3B3A001018B40D4B1B68FC46F3
:1037C000019308BD00DF453A001018B4084BDB68D0
:1037D000FC46019308BD0CDFFD3C001018B4044BFF
:1037E0009B68FC46019308BD08DFA13B0010000068
:1037F000240F0020FFB550404240504059404B40FC
:10380000594000E0FFB5154F4C00640D03D0BC4299
:1038100004D10C0314D80020090D09055C00640DC7
:1038200003D0BC4204D11C030AD800221B0D1B0587
:1038300001264B4009D44B4003D58B4200D1824234
:10384000FFBD9942FCD19042FFBD0B43DB180343FF
:103850001343F5D0C9434918FFBD0000FF0700001E
:1038600000B5FFF7CFFF804100BDC04600B5FFF7B0
:10387000C9FF01D9002000BD012000BD00B5FFF740
:10388000B9FF01D9002000BD012000BD00B5FFF740
:10389000B1FF804100BD012040054A00121804D844
:1038A0005A00121801D800207047012070470020EC
:1038B000704700000021002805D17047C11748401B
:1038C000401AFAD0C90713B5064B1B6898470CBCC1
:1038D000441CA2401005120B0349091B090519439A
:1038E000114310BD241100201F04000010B54C002E
:1038F000620D8023D218DB00D21A5B057E2A10DD10
:103900009E3A13DACC170903490819435242D140B1
:10391000640001341532202A05DAD04008436043A0
:1039200010BD002010BD0846604310BDC80FC01870
:10393000013810BD18B4044B5B6AFC46019308BD06
:1039400024DF293F00100000240F002070B513234E
:103950001C78012C07D0012C0EDC022C02DC1C4A46
:103960001C4B9A6470BD00231F2BF4D89900184893
:10397000184A88500133F7E71748FFF77FFC050026
:103980001648FFF77BFC023803789B007F2B19DD7C
:10399000802229000F4800F0D1FB022CDDD1104B12
:1039A0001A88B5231B029A4209D10E4B1A880E4B76
:1039B0009A4204D10D4B1A880D4B9A42CDD000206B
:1039C000FDF7F8FF0B4B0C4A30210C48FDF7D4FFF4
:1039D000013A0010240F0020534400005346000019
:1039E00054380000D8380000494600009C380000D8
:1039F0005946000060FB071018FC0710C0FB0710B9
:103A000007B56046002800D100BE01880A0A0230CE
:103A1000DF2AFAD1C9B2820804D3028840880004A0
:103A2000104300E00068024A5050039007BD0000B8
:103A3000240F00200FB403BC0CBCF0B50124E40734
:103A4000634000E0F0B50C0DCF0F661E3605891BF4
:103A5000640503D3C943404200D30131640D03D050
:103A6000661CF60A07D0E41B00207F00791C89073A
:103A70008912803C24031D0DDF0F6E1E36059B1B33
:103A80006D0503D3DB43524200D301336D0D03D0E8
:103A90006E1CF60A07D0ED1B00227F007B1C9B07E3
:103AA0009B12803D2D032F1B661B58D4A446202E4D
:103AB00046DA20371400BC401D00BD40F2403341BF
:103AC0002A4380185941CB0F05D0C943C043002277
:103AD00064425041514162464D0D28D10D0D07D130
:103AE00000281FD0241940414941013A0D0DF9D059
:103AF000640006D3013000D30131002C01D140080D
:103B00004000013A0BD4941CE40A04D1120511447C
:103B1000DB071944F0BDD907204B194300E0D90752
:103B20000020F0BD0029DDD1002CDBD1F0BD013239
:103B3000C6074008CD0728434908002EE1D0D9E741
:103B40003C2E29DA203E40371400BC4000D001242E
:103B5000F24014431A00BB401C43D317ACE7AC46F9
:103B6000202F08DA20360400B4400D00B540F8409C
:103B700039412843A5E73C2F0CDA203F40360400AA
:103B8000B44000D00124F84004430800B1400C4385
:103B9000C117EAE710001900002494E70000F07F45
:103BA000F0B50C0D661E3605891BE60A6405640D2A
:103BB00002D0651CED0A04D0002001210905803CDB
:103BC0002403A4461C0D671E3F05DB1BE70A6405A2
:103BD000640D02D0651CED0A04D0002201231B05F0
:103BE000803C24037740644497B484B296B2744313
:103BF000070C7E43150C6F4380B26843361802D31E
:103C0000012000043F183004350C00197D41844622
:103C100088B29AB250430C0C62431F0C7C438EB2A4
:103C20007E43921902D301263604A4191604170CF8
:103C30003618674101BC81B29AB25143040C624309
:103C40001B0C5C4380B25843121802D301200004BD
:103C500024181004130C401863412D185E410020F5
:103C6000474106BC88B293B258430C0C6343120C14
:103C7000544389B251435B1802D3012109046418EB
:103C800019041A0C091862416D1856410020474169
:103C900018BCF902720D1143F0026A0D1043ED02D7
:103CA0000A0D03D16D1940414941013B124E9B1B46
:103CB0007600B3420ED26D0007D301300026714169
:103CC0006646354301D1400840001B05C918E4078A
:103CD0002144F0BD0BDA013306D1013004D10131AA
:103CE0004F0D01D04908F2E7E1070020F0BD013691
:103CF00031050020EBE70000FF030000F0B51C0DCC
:103D0000671E3F05DB1BE70A6405640D02D0661CD5
:103D1000F60A04D0002201231B05803C2403D02591
:103D20002D060026F6432E661E096E66CE0FF61986
:103D3000B44649004F0D02D07E1CF60A03D0002085
:103D40000021403F3F033E1BB600B444013F7F05C6
:103D5000C91B49082E6F013676089C02950D254334
:103D60007543ED137543AD1301356D10F603761BE6
:103D70000CB4CC02450D2C43A2B2B3B25A43270C6B
:103D80007B43350C6F43A4B26C431B1902D301244F
:103D900024043F191C041D0CA4187D4124196D41F5
:103DA000009A91B2ACB26143170C7C432B0C5F4379
:103DB00092B25A43A41802D301221204BF1822045B
:103DC000230C52187B41019C6C431B19520ED901E4
:103DD0000A434401A01A81B2B2B2514303145A43B8
:103DE000360C734387B27743D617D21900277E412A
:103DF00036049B191704160C7F185E417316ED18D4
:103E0000F301002680337541A90F06D16400690AC9
:103E1000E8055B0A184309D22FE00422944480335A
:103E20007541A90AA8059B0A184326D34041494178
:103E30002404009A019B0D005543641B4343E41A7C
:103E400095B286B27543170C7E43030C5F4392B262
:103E50005A43B61802D301221204BF183204330C9D
:103E600052197B4152429C41002C02D40022013065
:103E700051414008CA071043490802B06246D707BB
:103E80009210084BD218084B9A4203D21205891897
:103E9000C919F0BD0020002A01DC3900F0BD013352
:103EA0001905F5E7FD030000FE070000624618CA89
:103EB000944600291ADAC01861415B463B415C46D2
:103EC000B4405246FA40224344464D4662416B415B
:103ED000904699462B46B3403D41FC401C43524618
:103EE0005B46A241AB4192469B467047C01AA14136
:103EF0004B463B414C46B4404246FA40224354466E
:103F00005D4662416B4192469B462B46B3403D4124
:103F1000FC401C4342464B46A241AB419046994669
:103F20007047002000217047002200B5203200F0C9
:103F300004F8080000BD000000220B15F1D410B5F4
:103F4000944600F02FF81414013400DA0021CB1746
:103F5000134C20476244343A0CD40C2A07DA04008C
:103F60009140904052422032D440214310BDD8436A
:103F7000D94310BD203207D40C469440524220321F
:103F80001141D040204310BD0800C917203203D48E
:103F900052422032104110BD1800190010BD00001F
:103FA000553F00100A0DCC0F531E1B05C91A5205B0
:103FB00003D3C943404200D30131520D03D0531CF7
:103FC000DB0A07D0121B00206400611C89078912DC
:103FD000803A1203014BD21A70470000FF03000021
:103FE00070B513231D782A48FFF748F90400012D06
:103FF00011D0012D09DDA31E1B789B007F2B40DD16
:1040000080222100234800F099F82348FFF72EF979
:10401000224B186070BD542201001E4800F08EF83B
:104020001F4B1A881F4B9A421CD1A7239B011A8849
:104030001D4B9A4216D11D4B1A881D4B9A4211D125
:104040001C4B1A8894239B019A420BD11A4B1A8855
:104050001A4B9A4206D11A4B1A681A4B9A4201D14E
:10406000152307E01848FDF7A5FC99001748094AF1
:10407000885001331F2BF8D9144A064B1A62DA61B3
:10408000B7E7134B134A42211348FDF775FCC046AE
:1040900053460000241000204C330000241100205F
:1040A000EE290000C40F0000C20D0000962B000096
:1040B000C0B50000182B0000CC2A000010B500008D
:1040C000FC2C000051ED876414F50710DD40001052
:1040D0002CFC0710B4FC071060FC071007B5604605
:1040E000002800D100BE01880A0A0230DF2AFAD176
:1040F000C9B2820804D3028840880004104300E05B
:104100000068024A5050039007BD000024100020B0
:1041100010B500F021FA10BD10B500F0E3F910BDA4
:1041200001480421014B1847D00300208D320010B4
:10413000014B1B6818470000D0030020014B5B684F
:1041400018470000D0030020F8B507000D00160046
:10415000437C002B02D0002400200CE003681100F7
:10416000280098472DE03B7C10E0022115483B6871
:104170009847601C0134B44214DA002CF3DD2B198B
:10418000013B1B780D3B5A425341DBB22A5D0A2AA0
:10419000F0D1002BEED1A042E7DA211A28183B68B3
:1041A0009847E2E7B04203DA311A28183B6898478B
:1041B000002E06DDAD19013D2B780D3B5A425341CF
:1041C0003B74F8BD20FD071070B505000368002B97
:1041D00016D00C4B1C6805E0290004C92000FFF72D
:1041E000B3FFE468002C09D02368002BF9D0064BFC
:1041F0001B68002BF0D0A342F3D1EDE700232B6026
:1042000070BDC046E00D0020E40D002070B5050033
:104210000C000B68802B05D021684B1C23606418B0
:10422000257170BD0800FFF7CFFFF5E710B582B02C
:10423000D0231B061C6801A9064800F011FE0028C7
:1042400006D1019BA34203D0024800F019FE0120D1
:1042500002B010BD380C002010B5024800F0E0FD9F
:1042600010BDC046380C0020F0B5C64600B582B07F
:1042700006000D001700FFF7D9FF80466B1C02D027
:10428000184B1C680DE0300000F056FC0500F7E705
:104290006B46D91D0A230B7001222000FFF754FF43
:1042A000E468002C10D02368002BF9D00E4B1B685B
:1042B000002B01D0A342F3D12A0031002000FFF7E8
:1042C00043FF002FECD0E3E74346002B06D1681EE6
:1042D0008541E8B202B004BC9046F0BDFFF7BCFFD8
:1042E000F5E7C046E00D0020E40D00200C4B1A68F5
:1042F0001300002B0BD0834202D01A00DB68F8E7D2
:10430000002903D1DB68D3600023C3607047002914
:10431000FCD0002A01D0D060F8E7014B1860F5E727
:10432000E00D002010B5064B1C6800E0E468002C8E
:1043300004D06368002BF9D09847F7E710BDC0465A
:10434000E00D002070B5050000F0F6FB040001222E
:1043500001002800FFF788FFFFF7E4FF200070BD91
:1043600070B5A2B004000E00FFF760FF05008422C4
:10437000002101A8FFF7DCFE3300220001A9084854
:10438000FEF75CFF040001A8FFF71EFFFFF7CAFF5E
:10439000002D02D1200022B070BDFFF75DFFF9E7CC
:1043A0000D4200100FB400B583B004A901C90191FA
:1043B000FFF7D6FF03B008BC04B0184710B500F0F3
:1043C0007DF810BDF0B583B000241EE06B460733C6
:1043D0000D221A70002204E01F78134E376001325C
:1043E0000133002A19D1104EB669B606FBD4F3E7A3
:1043F0001E780D4D2E6001320133002A04D10A4D82
:10440000AD69AD06FBD4F3E70134A1420AD9055DDD
:10441000064B00229B5EAB42D8D06B4607331D7023
:104420000022EAE703B0F0BD00400340200F002067
:1044300070B582B0050000200FE0124B9B69DB06CF
:10444000FBD4104B1B68237001320134002AF4D0D6
:104450006B4607331B780370300088420BDA094B38
:104460009B69102422001A401C4204D1461C2818C3
:104470006B46DC1DEAE7002801D002B070BD0338AE
:10448000FBE7C0460040034070B515001C00FCF778
:10449000F1F96B1C06D1631C09D101210648FFF715
:1044A00025FF70BD02212800FCF722F9F3E7022165
:1044B0002000FCF71DF9F0E7E003002010B5064BE3
:1044C0001B78064B1B78E121012300224902044896
:1044D000FFF7DAFF10BDC04610FF071014FF0710EA
:1044E0000040034010B5044B0A001B68010018008F
:1044F00000F004F810BDC046F803002010B5514389
:1045000000F03EF8041E0ED00300083B5A68032357
:104510009A43043A242A15D80300132A05D8002206
:104520001A605A609A60200010BD002108330160B3
:1045300041601B2AF3D98160C160242A06D00300A0
:104540001033ECE70021FFF7F3FDECE70300016116
:1045500018334161E3E7C04610B5034B010018680A
:1045600000F00EF810BDC046F803002010B5034B54
:104570000100186800F064FB10BDC046F80300207D
:10458000F0B557464546DE464E46E0B50D000B35C4
:1045900083B00700162D22D8102900D9BBE000F007
:1045A000B5FA102518230220D14EF3181A005C68C2
:1045B000083A944200D1BEE0032362689A43130094
:1045C000E268A168CA6091600122E3185968380066
:1045D0000A435A6000F09CFA200008309EE007234E
:1045E0009D4300D597E0A94200D994E000F08EFAEF
:1045F000F823FF339D4200D8ADE1680A00D194E072
:10460000042800D980E138239846A809804439302D
:10461000C100B74E71180839CC68A14218D00323E5
:1046200062689A431300521B0F2A00DD36E1002A0C
:10463000C6DA03239C4608E06246636893435A1B2C
:104640000F2A00DD2AE1002ABADAE468A142F3D198
:10465000320034690832944200D177E00323616864
:10466000994389460B00491B0F2900DD77E17261F0
:1046700032610029A8DA9F4A914500D910E1DA0891
:10468000012391108B40D200716892190B439168FD
:104690007360E260A1609460CC600121821091405F
:1046A000994259D80B4205D1032290434900043066
:1046B0000B42FBD003239846C3009946B144CC4635
:1046C00082466346DC68A44507D129E1002A00DB65
:1046D00032E1E468A44500D122E142466368934395
:1046E0005A1B0F2AF2DD01208046611905436560DF
:1046F000A068E5680836C560A8604046F160B16012
:1047000010434860CE608E603800E25000F000FA3E
:104710002000083002E00C2300203B6003B03CBCCA
:1047200090469946A246AB46F0BD80213F238900C2
:10473000402098466DE7DC680230A34200D03BE79A
:10474000320034690832944200D087E7012173684F
:10475000821091409942A5D90323B46862689A43B4
:104760009046AA4203D3531B0F2B00DD88E02300A1
:104770004344614A0193614B93469A4612681B6811
:10478000EB18013200D139E15D4A944663441B0BBA
:104790001B0300930099380000F0BCF90300814628
:1047A000013300D1F6E0019B834200D9F0E051468D
:1047B0004968009B8C46514663444B6001991A003E
:1047C000494500D14FE15B461B68013300D154E1FC
:1047D0004B4601995B1A9A1853465A6007234A467A
:1047E0001A40019200D113E108214B4689469B1AD9
:1047F00099440099434B49449B1A5B1A1B051B0DB6
:104800000091380019009B4600F084F9431C00D148
:104810004FE14B46C01A03005B4400935346524697
:104820005B6801215B4453604A464846B260009A87
:104830000A434260B44200D123E142460F2A00D825
:1048400021E107200C3A82436068014005201143B2
:104850006160A118486088600F2A00D934E14A4697
:104860004C4652685146C96A994201D25146CB62C0
:104870005146096B994200D38EE051460B638BE0A1
:104880000122290013431143651961603800B560A6
:104890006B6000F03DF9200008303FE74046D7E666
:1048A0005A0A042A6ED9142A00D9C1E011005C32D8
:1048B0005B31D20008235B429C46B21894446346A5
:1048C0009A6803239846944500D19AE0434651687C
:1048D0009943494502D992689445F7D1D3689C46DB
:1048E00073686146A260E1608C60D460D5E6C04622
:1048F00030080020FF01000028080020700C002074
:104900000F10000008100000142852D9542800D9B4
:1049100096E06E239846280B80446F30C10078E6FD
:1049200008239B46073BDC449B46DA4443465246F9
:10493000134200D0C5E64CE00122E3185968380064
:104940000A435A60E368A268D3609A6000F0E0F816
:1049500020000830E2E62B00E808083324E60123B3
:1049600060191D43656070613061C26082601A0029
:104970004B460A4342603800E15000F0C9F820007D
:104980000830CBE69A09110039323831D20091E76C
:10499000B44260D0B468626803239A43531BAA42AE
:1049A00002D30F2B00DD6BE7380000F0B1F80020D8
:1049B000B4E65B23984680445C30C10029E60823B6
:1049C0005B429C46E1444B469B6801384B4500D016
:1049D00097E043460342F2D173688B43736049000A
:1049E000994200D9B8E6002904D1B5E604229446DC
:1049F0004900E2440B42F9D050465DE61033009383
:104A0000C8E68910023B8B4071680B43736068E70E
:104A1000009B38004B441B055B421B0D19009B4655
:104A200000F078F8431C00D0F3E600239B46F5E63F
:104A3000542A2AD81A0B11006F326E31D20039E78E
:104A4000AA235B0098422AD8DD3B9846E80B8044B5
:104A50007830C100DDE553465B68009A9C465346BA
:104A600062445A60AFE6090500D0ACE6009AB4682B
:104A7000424401310A436260F4E65B464A461A60EA
:104A8000ACE64C46EEE641608EE7AA2149008A4238
:104A900024D8DA0B110078327731D2000AE71A4BAA
:104AA000984224D87C239846A80C80447D30C100CD
:104AB000AFE5009A019B94464A46083B63449B1A23
:104AC000009300239B46A9E621003800083100F03E
:104AD000B7F85346B4685B686268C3E60A498A421D
:104AE0000BD89A0C11007D327C31D200E2E6FE2117
:104AF0007E2389007F2098468BE5FE227E2192004E
:104B0000D8E673686BE7C046540500007047C0469E
:104B10007047C046002370B5064C050008002360AE
:104B2000FCF70AFF431C00D070BD2368002BFBD0AC
:104B30002B60F9E72811002010B5830727D00378F0
:104B4000002B26D00300032102E01A78002A1CD093
:104B500001330B42F9D119680F4A104C8A188A4365
:104B600022420FD1043319680B4A8A188A43224221
:104B700008D104331968084A8A188A432242F1D0BE
:104B800000E001331A78002AFBD1181A10BD030087
:104B9000E1E70020FAE7C046FFFEFEFE808080804D
:104BA000F8B50C000600FFF7B1FF204FBB685D6849
:104BB00003239D431E4B2C1B9C466444240B1D4B1E
:104BC000013C24039C4207DD00213000FFF7A2FFD7
:104BD000BB685B19984204D03000FFF799FF0020B2
:104BE000F8BD61423000FFF795FF431C0DD0012254
:104BF000BB682D1B15435D600F4B30001A68141BFA
:104C00001C60FFF785FF0120EAE700213000FFF775
:104C100081FFBA68831A0F2BDEDD08490968401A44
:104C20000549086001210B435360D5E73008002097
:104C3000EF0F0000FF0F0000740C00202808002078
:104C4000F0B5D6464F4646460500C0B50C1E5CD0B2
:104C5000FFF75CFF210008394F6801243B00032265
:104C6000A343C81846689643B146664EB26882426E
:104C700000D175E04A464260821894463C4229D1F0
:104C80000F68C91B8A68DB1990466246576808227C
:104C900094462740B444BA46E04556D0CA68944684
:104CA00042466746D7606246474697605246002AAA
:104CB00013D101224B44CF18BC468468524F1A438B
:104CC000BC4200D17AE0C068E06084604A6062461D
:104CD000136005E057682742EBD01C434C6003602B
:104CE0004A4A934216D8DB08FF3A9810FF3A8240AE
:104CF0007068DB00024372609E19B368CE608B60FF
:104D0000B160D9602800FFF703FF1CBC90469946AC
:104D1000A246F0BD5C0A042C3AD89C092000393424
:104D20003830E4003419083CA268032794423ED08E
:104D30005068B843984202D992689442F8D1D46836
:104D4000CC608A60A160D160DCE7002F55D1C268D9
:104D50004B4480681C43C26090604C60CB50D1E7EC
:104D60004B443C4206D10A68891A88689B18CA6875
:104D7000C260906001221A434A60254AB1601268FD
:104D80009A42BFD8234B28001968FFF709FFB9E7FB
:104D9000142C07D9542C19D81C0B20006F346E30FA
:104DA000E400BFE720005C345B30E400BAE7012395
:104DB00080108340706803437360C1E7E160A160C5
:104DC0004A606246CC608C6013609BE7AA2040007A
:104DD000844205D8DC0B200078347730E400A1E76A
:104DE0000D48844205D89C0C20007D347C30E400C2
:104DF00098E7FE247E20A40094E71C434C600360E7
:104E000080E7C0463008002038080020FF0100007D
:104E10002C080020700C002054050000F8B5C04696
:104E200001B40248844601BC604700BF6D01002008
:104E300001B40248844601BC604700BF4103002022
:104E400001B40248844601BC604700BF9D020020B7
:104E500001B40248844601BC604700BF4103002002
:104E600001B40248844601BC604700BF2501002010
:104E700001B40248844601BC604700BFF90100202C
:104E800001B40248844601BC604700BFC100002055
:104E900053797374656D20636C6F636B206F66204C
:104EA0002575206B487A2063616E6E6F7420626591
:104EB0002065786163746C792061636869657665E3
:104EC000640000007D7D7D7D7D7D7D7D7D7D7D7DA2
:104ED0007D7D7D7D7D7D7D7D7D7D7E7D7D7D7D7C02
:104EE0007D7D7E7D7E7E7D7D7D7D7D7D7D7D7D7DEF
:104EF0007D7D7D7D7D7E7D7D7D7D7D7D7D7D7E7DE0
:104F00007D7D7C7D7D7D7E7D7D7D7C7D7D7D7D7ED1
:104F10007E7D7D7D7D7C7C7D7E7E7E7D7D7D7D7DBF
:104F20007D7D7D7D7D7D7D7D7D7D7E7D7D7D7D7DB0
:104F30007E7E7D7D7D7D7D7D7D7E7E7E7D7D7D7D9C
:104F40007D7D7E7E7D7D7D7D7D7D7D7D7D7D7D7D8F
:104F50007D7D7D7D7E7D7D7D7D7D7D7E7D7D7D7D7F
:104F60007D7D7D7D7E7D7D7D7D7D7D7D7D7D7D7D70
:104F70007D7D7D7E7D7E7E7D7E7E7D7D7D7D7D7D5C
:104F80007D7D7D7D7D7D7E7D7D7D7D7D7D7D7D7D50
:104F90007D7D7D7E7E7E7D7D7D7D7D7D7D7D7D7D3E
:104FA0007D7D7D7D7E7D7D7D7D7D7D7D7D7D7D7D30
:104FB0007D7D7D7D7D7E7E7D7D7D7D7D7D7D7D7D1F
:104FC0007D7D7D7D7D7D7D7E7E7D7D7E7D7C7D7D0F
:104FD0007D7E7D7D7E7D7D7D7E7E7D7D7D7D7D7EFC
:104FE0007D7D7E7D7D7D7D7D7D7D7D7D7D7E7D7DEF
:104FF0007D7D7D7D7D7D7E7D7D7D7D7D7D7D7D7DE0
:105000007D7D7D7D7D7D7D7D7D7D7D7D7D7E7D7DCF
:105010007D7D7D7D7D7D7D7D7D7D7D7D7E7D7D7DBF
:105020007D7D7D7D7D7D7D7C7D7D7D7D7D7D7E7DB0
:105030007D7E7D7D7D7D7D7E7D7D7D7D7D7D7E7E9C
:105040007E7E7D7D7D7D7D7D7D7D7D7D7D7D7D7D8E
:105050007D7D7D7D7D7D7D7D7D7D7D7E7D7D7D7D7F
:105060007D7D7D7D7D7D7D7D7D7D7D7D7D7D7E7D6F
:105070007D7E7D7D7D7D7D7D7D7D7D7D7D7D7D7D5F
:105080007D7D7D7D7D7D7D7D7D7E7E7D7D7D7D7D4E
:105090007D7D7D7E7E7D7D7D7D7D7D7D7D7D7C7D3F
:1050A0007D7D7D7D7D7D7D7D7D7D7D7D7D7D7D7D30
:1050B0007D7D7D7D7D7D7D7D7D7D7D7D7D7D7D7D20
:1050C0007E7D7D7D7D7D7E7D7D7E7D7E7E7D7D7D0B
:1050D0007D7D7D7D7D7D7D7E7D7D7D7E7D7D7D7DFE
:1050E0007C7D7D7D7D7D7D7E7D7D7E7D7D7D7D7DEF
:1050F0007D7D7D7D7E7D7D7D7D7D7D7D7D7E7D7DDE
:105100007D7D7D7D7D7D7D7D7D7D7D7D7D7D7C7DD0
:105110007D7D7D7D7D7D7D7D7D7D7D7D7D7E7E7DBD
:105120007D7D7D7D7D7D7D7D7D7D7D7D7D7D7D7EAE
:105130007E7D7D7D7D7D7D7D7D7D7D7E7D7D7D7D9D
:105140007D7D7D7D7D7E7E7D7D7D7D7D7D7E7D7D8C
:105150007D7D7D7E7D7C7C7D7D7D7D7D7D7D7E7D7F
:105160007D7D7D7D7D7D7D7D7D7E7D7D7D7D7D7E6D
:105170007D7D7D7D7D7D7D7D7D7D7E7D7D7D7D7D5E
:105180007E7D7D7E7D7D7D7D7D7D7D7D7D7D7D7D4D
:105190007D7D7C7C7D7D7D7D7E7D7D7D7D7D7D7D40
:1051A0007D7D7E7D7D7D7D7D7D7D7E7D7D7D7D7D2D
:1051B0007D7D7D7D7D7D7D7D7D7D7D7E7E7D7D7D1D
:1051C0007D7D7D7D7D7D7D7D7D7D7D7D7E7E7D7D0D
:1051D0007D7D7D7D7D7D7D7D7D7D7D7D7D7D7D7DFF
:1051E0007E7D7D7D7D7D7D7D7D7E7D7D7D7D7C7DEE
:1051F0007D7D7D7E7D7D7D7D7D7D7E7E7D7E7D7DDB
:105200007D7D7D7D7E7D7D7D7D7D7D7D7D7D7D7DCD
:105210007D7D7D7D7D7D7D7D7D7D7D7D7D7D7D7DBE
:105220007D7D7C7D7D7D7D7D7D7D7D7C7C7D7D7DB1
:105230007D7D7D7D7D7D7E7D7D7D7E7E7E7D7D7D9A
:105240007D7D7D7D7D7D7D7E7D7D7E7E7D7D7D7D8B
:105250007D7D7D7E7D7D7D7D7D7E7E7D7D7E7E7D79
:105260007D7D7D7D7D7D7D7D7D7D7D7D7D7D7D7D6E
:105270007D7D7D7D7D7D7D7D7E7D7D7E7E7D7D7D5B
:105280007D7D7C7C7D7E7D7C7D7D7D7D7D7D7D7D50
:105290007E7D7C7D7D7D7E7E7D7D7D7E7E7E7D7D39
:1052A0007D7D7D7C7D7D7D7E7D7D7D7D7D7D7E7E2C
:1052B0007E7F7F7F7F7E7E7E7D7D7C7A7A7B7C7C1D
:1052C0007E7E7F7E7E7D7C7C7C7C7D7E7E7E7F7F05
:1052D0007F7F7E7E7E7D7C7C7C7C7C7D7D7D7D7CFD
:1052E0007C7C7C7D7E7E7E7F7F7E7E7E7D7D7D7DE7
:1052F0007D7D7D7E7E7E7D7D7D7C7C7C7C7C7C7DE1
:105300007D7D7E7E7E7E7E7E7E7D7E7E7E7D7D7DC3
:105310007D7D7C7C7C7D7D7D7C7D7C7C7C7B7C7DC7
:105320007F81838383827F7D7A787677797B7E81A4
:10533000838382807F7C7978777678797B7D8081A2
:10534000828282807E7E7C7B7A7A7B7B7C7D7D7E86
:105350007F7F7E7E7E7E7D7C7C7B7A7A7A7B7C7D85
:105360007E80818282817F7E7C7B7A797A7B7C7D64
:105370007E7F807F7F7F7E7C7B7C7C7C7C7C7C7D59
:105380007E7F7F7F7F7F7E7E7E7D7C7C7C7B7B7B48
:105390007B7B7C7D7E7E7E7E7D7C7C7B7D7F808139
:1053A0008281807E7D7B7978797A7C7F8081828121
:1053B0007F7D7B79797978797A7C7E7F8080808027
:1053C00081807E7E7D7C7B7B7B7C7C7C7D7E7E7F0A
:1053D0007F807F7E7D7C7B7A7B7B7C7C7D7F8080F9
:1053E0008181807F7E7D7B7B7B7A7B7C7C7D7E7EEA
:1053F0007E7F7E7E7D7C7C7C7C7C7C7D7D7C7D7EDE
:105400007F80807F7E7D7C7B7A7878797A7C8185CD
:10541000878988837F7A74717172767D83868889A3
:1054200086817D7975747475787B7E8082828381B4
:105430007F7D7C7B7C7D7E7E7F7E7D7C7B7B7B7CA1
:105440007E80818281807D7A78777777797C7F8290
:1054500083848482807D7A787878797B7E8081816C
:10546000807F7D7C7B7B7C7C7C7D7D7C7B7B7B7C77
:105470007E8083858684827E7A777474767A7F8450
:105480008686827E7874717173777C818487888642
:10549000837F7C7978787A7D80838483817E7B7832
:1054A000767677797C7E8081807F7E7C7B7B7B7C3F
:1054B0007F81828382807E7C797878797A7C7D7E18
:1054C0007F7E7D7B7977787A80868C8E8C867F76DE
:1054D0006F6D6D727A82898E8E8981786F6A696B41
:1054E00071787F878D8E8D8A837C76737274787ED7
:1054F00083868785817D79767475787B7E818181CD
:105500007F7D7B7979797B7F8284868683807C78B6
:1055100075747476797B7E807F7D7D7D81868A8CB3
:105520008A847D746C696B7079838B90918D867E93
:1055300077726F6F7174787B7E80828586848381B9
:105540007F7D7B7B7A797979797A7C7E818384858A
:105550008582807B7774737375787C808486878777
:1055600086837E7B77757576787B7E808283817F6C
:105570007E7D7B7A797879797A7E83878A8B888336
:105580007D76716E70747B83878A88837D77726F76
:105590007073777C818587888784817D7977767839
:1055A0007B7D80838382807C797776777A7C7F812C
:1055B00081807F7D7C7A79797B7E808385858381FC
:1055C0007D7976747475787B7D7E7E7E8084898D0E
:1055D0008E8A837B726B686A707A838C92928F88D2
:1055E0007D736C68686C71787F858A8D8E8B868000
:1055F0007A767575777B7E8082817F7D7B7A7A7BF8
:105600007C7E7F7F7E7D7B797878797A7E828586C5
:105610008786837F7B7774727274777A7C7E8184CD
:10562000888D908F8A83786E6764676F7A858F9391
:105630009490887F766F6B6C6E73787D808486879C
:105640008785827F7C7A7979797A7B7C7B7B7C7C8D
:105650007E7F81838483817E7A76747375777A7E88
:105660008386888886837E7976747476787A7E7F5E
:105670007F7F7D7C7D8084898C8C89827A726B6946
:105680006A6F767D83878A8C8C8A87837C756E6B44
:105690006A6B717A838B90918E88817B75716F6F45
:1056A0007174787D828588898886827F7B7876751B
:1056B0007577797B7C7D7F8081838382807E7B7818
:1056C0007673737579808A9194938D83786F696806
:1056D0006C757D848786827D79757475777B808310
:1056E000858685837F7B797777787B7F83868785BF
:1056F0008079736F6D6D70757B828A929797938AAC
:105700007D7167626268727E888F92908980756D04
:105710006A6B707881898D8E8B867F7975727275D0
:105720007A7F83858584838281807E7B75716F6FAC
:1057300072797F84888987847F7A767575767A7D99
:105740007F808282828383817F7D7A787676767687
:105750007778797B7E82878D92928F887D736A6558
:1057600064687079838A8D8C88847F7B7A7C7E7F65
:105770007E7A75727173787E868C90908C857C723F
:105780006A65666D78858F95948F857A726D6B6E7C
:10579000747B81868785817D797777787B7F828529
:1057A0008685837F7B7672707275797E828484842D
:1057B0008585868887837E78716C6A6B6F757D8539
:1057C0008D9496959086796D646060656E7A85910A
:1057D000989A978F847A716B69696C71777E8589E5
:1057E0008C8B8985807C7A78777677777777787AEB
:1057F0007C7E80828486888A8B89847E78726D6CB8
:105800006D70757B83898C8C89847D767271747AD6
:10581000808384827F7B7A7B7D81858787857F7784
:10582000706C6A6B7079848E9699968E82776C65AF
:1058300062656C77818A8E8F8C86807A75716F70C5
:10584000747A828A8F918F8A837A736F6C6E737980
:105850007E838686858685827F7A74717071747A7C
:10586000808588898884807D7A77767576787A7D58
:105870007F8181807E7C7A79797B7C7E7F80828546
:10588000888886807A746F6E6E70747B838B929535
:10589000938D82756A636267707B87909595918816
:1058A0007D746C6A6B6F767E83888A8986817C784A
:1058B0007574777A7D80817E7B7673757B85909712
:1058C000978F8475685F5C5F687686949DA09E97CD
:1058D0008A7B6D635D5D636C7886939A9B958B7F05
:1058E000746B67686D747D8487898884817E7B7A18
:1058F0007C7D7D7D7C7A79746F6D6F768596A5A9A8
:10590000A2927B64534A4B55677F97AAB5B5AB9873
:105910008067544A485060758CA0ABABA2927F6EF2
:10592000635E6168727E878C8E8C87817C78787BE1
:105930007E7F7D79736C686B76889DABADA4907724
:10594000604F474854688199ABB5B5AC99806651B2
:1059500045444D607993A8B2AFA28E79675C5A5FD7
:105960006A76828A8E8E8A847F79757476797C7D58
:105970007C7A787A818A949894897B6D635F60647D
:105980006B7683909CA3A39B8C78665953555D6C72
:105990008196A4A9A3968574675F5E636B76818AFE
:1059A0008F91908C857C757070747A8085878681E4
:1059B0007A726E6E737C868E949591877A6D645D33
:1059C0005C636E7B89959B9B968C81746B66656826
:1059D000707B868E91918D867F787473767A7D7FC9
:1059E0007D7973707178848F97978F83776C6665F4
:1059F000676E7780878E908E8C888179726B6768EE
:105A00006E77838D9290887F7774777E878D8E896D
:105A10007F72665F5E6574889CAAABA2927E6A5BA9
:105A2000514F536175899BA7A9A295816F635E5EF3
:105A3000646E7A86909696918A827B757272757A78
:105A40007F817D776F6A6C758496A4A9A18F7A6631
:105A5000564E4F5766798B9AA3A6A29A8C7C6C619E
:105A60005A595F6A77848E959A9B9A968C7E716656
:105A7000606168727E878A867F7976777C80858888
:105A800089867F78726E6C6E737981898E9293901D
:105A9000897E70645B595F6A7A8FA2AFB3AA967EE3
:105AA00066544C4D586A7F919B9D978C8078757891
:105AB0007E83837D756E69686D757E8992979792F6
:105AC000897F7368605B5D67798E9FA7A69D8E7ED8
:105AD000706661626870767A7D818790989B978AFC
